:020000040800F2
:1000000060060020B10100087D02000875020008AA
:100010007902000863020008D10300080000000014
:100020000000000000000000000000008102000845
:1000300067020008000000007F0200086D0300084E
:10004000CB010008CB010008CB010008CB01000860
:10005000CB010008CB010008CB010008CB01000850
:10006000CB010008CB010008CB010008CB01000840
:10007000CB010008CB010008CB010008CB01000830
:10008000CB010008CB010008CB010008CB01000820
:10009000CB010008CB010008CB010008CB01000810
:1000A000CB010008CB010008CB010008CB01000800
:1000B000CB010008CB010008CB010008CB010008F0
:1000C000CB010008CB010008CB010008CB010008E0
:1000D000CB010008CB010008CB010008CB010008D0
:1000E000CB010008CB010008CB010008CB010008C0
:1000F000CB010008CB010008CB010008CB010008B0
:10010000CB010008CB010008CB010008CB0100089F
:10011000CB010008CB010008CB010008CB0100088F
:10012000CB010008CB010008CB010008CB0100087F
:1001300000F002F800F02CF80AA090E8000C8244CD
:100140008344AAF10107DA4501D100F021F8AFF2AA
:10015000090EBAE80F0013F0010F18BFFB1A43F0A5
:10016000010318475004000060040000002300242D
:1001700000250026103A28BF78C1FBD8520728BFB7
:1001800030C148BF0B6070471FB51FBD10B510BD13
:1001900000F031F81146FFF7F7FF00F01BF900F00F
:1001A0004FF803B4FFF7F2FF03BC00F053F8000070
:1001B0000948804709480047FEE7FEE7FEE7FEE7FB
:1001C000FEE7FEE7FEE7FEE7FEE7FEE70448054937
:1001D000054A064B70470000710300083101000812
:1001E0006000002060060020600200206002002005
:1001F000704770477047754600F028F8AE46050016
:100200006946534620F00700854618B020B5FFF731
:10021000DDFFBDE820404FF000064FF000074FF033
:1002200000084FF0000B21F00701AC46ACE8C00914
:10023000ACE8C009ACE8C009ACE8C0098D4670471D
:100240000446AFF300802046FFF7ABFF004870473D
:100250000000002001491820ABBEFEE72600020086
:10026000704700BFFEE77047002100E0491C814253
:10027000FCD3704700BFFEE700BFFEE77047704742
:10028000704710B500F002F810BD00000CB500205A
:10029000019000903348006840F480303149086094
:1002A00000BF3048006800F4003000900198401C06
:1002B0000190009818B90198B0F5A06FF1D12948C4
:1002C000006800F4003010B10120009001E000202F
:1002D00000900098012843D12348006840F01000A6
:1002E000214908600846006820F0030008600846BD
:1002F000006840F0020008601A48406819494860E8
:100300000846406848600846406840F4806048609D
:100310000846406820F47C1048600846406840F475
:10032000E81048600846006840F08070086000BF30
:100330000C48006800F000700028F9D009484068B7
:1003400020F00300074948600846406840F002007A
:10035000486000BF0348406800F00C000828F9D14D
:100360000CBD000000100240002002407047000059
:1003700010B51348006840F00100114908600846B4
:100380004068104908400E494860084600680E4918
:1003900008400B4908600846006820F48020086087
:1003A0000846406820F4FE0048604FF41F00886053
:1003B000FFF767FF4FF000600449086010BD0000C0
:1003C000001002400000FFF8FFFFF6FE08ED00E01D
:1003D00000BFFEE77148806940F008006F498861FE
:1003E0000846806940F0400088610846806940F016
:1003F000040088616A48006820F470006849086059
:100400000846006840F4401008606648006820F420
:100410007060644908600846006840F40060086045
:1004200060481030006840F004005E4910310860F8
:1004300020205B49103108605A4800685A4908403A
:10044000584908600846006840F442100860554862
:100450001030006840F00800524910310860202038
:1004600008605248006820F00F00504908600846B4
:10047000006840F0080008604C481430006840F004
:1004800001004A49143108604548001D006820F009
:100490000F004349091D08600846006840F003004A
:1004A000086088153E491431086076E03D48083000
:1004B000006800F0040020B12020394910310860A4
:1004C00003E02020364914310860364808300068BF
:1004D00000F0080008BB3648FFF7C6FE3148083078
:1004E000006800F00800C0B900BF2E48083000685E
:1004F00000F008000028F8D02A480C30006800F00E
:10050000200058B127481030006820F0200025490D
:10051000103108602020091D08600AE021481430CD
:10052000006820F020001F49143108602020091FB6
:1005300008601E480830006800F0010008B31C483D
:10054000FFF792FE19480830006800F00100C0B1C2
:1005500000BF16480830006800F001000028F8D1FC
:100560000F480C30006800F4807058B10C4810300F
:10057000006820F480700A49103108608815091D50
:1005800008600AE006481430006820F480700449CE
:10059000143108608815091F086087E700100240C1
:1005A000000C014000180140FF0F0FFF0008014040
:1005B00020A10700C405000800000020600600001C
:0405C0006C010008C2
:0400000508000131BD
:00000001FF
