:020000040800F2
:10000000100D0020CD010008C50B0008C506000832
:10001000790B00087F0200089D0F00080000000017
:10002000000000000000000000000000050D0008B6
:100030003505000800000000310C0008C50E00085E
:10004000E7010008E7010008E7010008E7010008F0
:10005000E7010008E7010008E7010008E7010008E0
:10006000E7010008E7010008E7010008E7010008D0
:10007000E7010008E7010008E7010008E7010008C0
:10008000E7010008E7010008E7010008E7010008B0
:10009000E7010008E7010008E7010008E7010008A0
:1000A000E7010008E7010008E7010008E701000890
:1000B000E7010008E7010008E7010008E701000880
:1000C000E7010008E7010008E7010008E701000870
:1000D000E7010008E7010008E7010008E701000860
:1000E0006D050008E7010008E7010008E7010008C6
:1000F000E7010008E7010008E7010008E701000840
:10010000E7010008E7010008E7010008E70100082F
:10011000E7010008E7010008E7010008E70100081F
:10012000E7010008E7010008E7010008E70100080F
:1001300000F002F800F03AF80AA090E8000C8244BF
:100140008344AAF10107DA4501D100F02FF8AFF29C
:10015000090EBAE80F0013F0010F18BFFB1A43F0A5
:1001600001031847081F0200281F0200103A24BF8D
:1001700078C878C1FAD8520724BF30C830C144BF0C
:1001800004680C607047000000230024002500264E
:10019000103A28BF78C1FBD8520728BF30C148BFEA
:1001A0000B6070471FB51FBD10B510BD00F031F8D2
:1001B0001146FFF7F7FF01F053FA00F04FF803B4D0
:1001C000FFF7F2FF03BC00F053F800000948804736
:1001D00009480047FEE7FEE7FEE7FEE7FEE7FEE729
:1001E000FEE7FEE7FEE7FEE704480549054A064B41
:1001F000704700003D0F0008310100081007002083
:10020000100D0020100900201009002070477047D1
:100210007047754600F028F8AE460500694653461B
:1002200020F00700854618B020B5FFF7DDFFBDE8D8
:1002300020404FF000064FF000074FF000084FF04D
:10024000000B21F00701AC46ACE8C009ACE8C009DE
:10025000ACE8C009ACE8C0098D4670470446AFF36E
:1002600000802046FFF7ABFF00487047B006002033
:1002700001491820ABBEFEE726000200704700BF10
:10028000FEE700000A48806940F0080008498861DC
:100290000848006820F00F0006490860084600681A
:1002A00040F003000860881502491031086070476B
:1002B00000100240040C014088B90022164B1A704D
:1002C0004FF48072154B1A60154A12680A44154B98
:1002D0001A601A4612685032134B1A607047012296
:1002E0000D4B1A7012020D4B1B1F1A600F4A92FB26
:1002F000F0F20F4B1A600A4A12680E4B1A60084A55
:1003000012680A44074B1A601A4612685032064BAC
:100310001A6000BFE2E7000008000020140C014052
:1003200020000020140000201800002020A1070059
:10033000100000200C00002030B52C48007860B17F
:100340002B4800682B490968884206D300202749BA
:1003500008704FF480702849086024480078C8B1BC
:100360002348006825490968884213D32248083881
:10037000006880F4807020490839086020480068CF
:100380004FF47A71B0FBF1F0401C1C490968084435
:100390001A4908601548007838BB154800681949A3
:1003A0000968884221D318480078F0B117481849E5
:1003B000098830F821401649098800EB81004588FA
:1003C0004CB90020124908800948006800F5FA700D
:1003D0000C49086008E029462046FFF76DFF0C48ED
:1003E0000088401C0A49088000BF30BD080000207A
:1003F0002000002014000020140C01400C000020FC
:1004000010000020180000201E00002024370008E3
:100410001C00002070B504460D464EF6DF722946DA
:10042000204600F079FE70BD70B504460D464EF6CC
:10043000DF722946204600F08DFE70BD024800881C
:10044000401C014908807047A8000020024800882D
:10045000401C014908807047AA00002010B51248CE
:10046000007828B91148007810B91148007800B90F
:1004700010BD1048006810490968884200D2F7E7AB
:100480000E4802880E4801880948007800F0B0FC48
:100490000848006800F5FA7007490860012009491A
:1004A000087000BFE4E70000760000205A0000203A
:1004B00074000020200000208C000020520000204A
:1004C000500000208800002010B51248007828B99C
:1004D0001148007810B91148007800B910BD1048D3
:1004E000006810490968884200D2F7E70E48028880
:1004F0000E4801880948007800F07AFC0848006836
:1005000000F5FA700749086001200949087000BF2A
:10051000E4E70000760000206C0000207500002059
:10052000200000208C0000206400002062000020D9
:1005300088000020704700BF0100A0F10100FBD13E
:10054000704770B504460D46164632462946204689
:1005500001F000F870BD70B504460D4616463246EF
:100560002946204601F022F870BD00002DE9F04731
:100570003048006800F40060002858D02E48006819
:100580002E49086002F070F806462D49097806FAEF
:1005900001F02C49098808432A4908802848007836
:1005A000401C27490870084600780B283ADB25488C
:1005B000048804F00107C4F34705C4F34028C4F3DA
:1005C0008029284600F0ECFC00F0010AFFB9B9F1DF
:1005D000010F1CD18AF00100404518D100201A49B2
:1005E0000870F02D03D101201849087014E0174855
:1005F000007838B10021284602F020F90020134984
:10060000087009E00121284602F018F904E000F022
:10061000DBFA00200C49087000200A4908800849CC
:10062000087000BF4FF400600249086000BFBDE8D9
:10063000F087000014040140200000202C0000205E
:100640002A00002028000020300000202B0000207D
:1006500010B500201249086012490860124908804C
:10066000124908801249087012490870124908702E
:100670001249086000BF0DE0002108E00022C0EB35
:1006800000130F4C04EB430323F81120491C0F29DE
:10069000F4DB401C1428EFDB00F070FA10BD000002
:1006A00024000020AC000020A8000020AA000020A8
:1006B00076000020740000207500002084000020D7
:1006C0005804002000BFFEE71B48806940F0280066
:1006D000194988611948006820F47040174908607A
:1006E0000846006840F4405008600846006820F45E
:1006F000706008600846006840F4006008600F48B9
:100700000830006840F480600C49083108600C48EB
:10071000006820F470400A4908600846006840F408
:1007200040500860C8140549103108600820044989
:10073000143108607047000000100240040C0140B2
:10074000001401402B48806940F004002949886169
:100750000846806940F0400088612748006820F022
:100760000F00254908600846006840F0080008604E
:1007700021481430006840F001001F49143108601E
:100780001E48006820F470201C4908600846006874
:1007900040F40020086019481030006840F0100054
:1007A0001649103108601548006820F4704013495C
:1007B00008600846006840F4004008600F481030A8
:1007C000006840F008000D49103108600B480068CF
:1007D00020F47060094908600846006840F4006031
:1007E000086006481030006840F0040003491031EA
:1007F00008607047001002400008014000180140E6
:100800002DE9FC41044688461020434650222146EB
:1008100000904EF6DF7000F0F1FC4EF6DF700090B5
:10082000A0B21F235022414600F0EAFD4EF6DF70D1
:1008300004F10801009088B21F233122414600F0E4
:10084000DFFD4EF6DF7004F11001009088B21F2327
:100850003A22414600F0D4FD1F4805885DB94EF6A6
:10086000DF7004F11801009088B21F233022414646
:1008700000F0C6FD2DE000260EE00A2095FBF0F109
:1008800000FB1150C2B23046711CCEB201A90A540D
:100890000A2095FBF0F085B2002D01DD032EECDB84
:1008A00004F1200087B211E04EF6DF700090701E58
:1008B000C0B2064601A9085C3030C2B21F234146CF
:1008C000384600F09DFD07F1080087B2002EEBDCF2
:1008D00000BFBDE8FC810000A80000202DE9FC411C
:1008E00004468846102043465022214600904EF68A
:1008F000DF7000F083FC4EF6DF700090A0B21F2383
:100900005022414600F07CFD4EF6DF7004F10801F4
:10091000009088B21F233222414600F071FD4EF64E
:10092000DF7004F11001009088B21F233A22414683
:1009300000F066FD1F4805885DB94EF6DF7004F1D2
:100940001801009088B21F233022414600F058FD64
:100950002DE000260EE00A2095FBF0F100FB11507F
:10096000C2B23046711CCEB201A90A540A2095FBCE
:10097000F0F085B2002D01DD032EECDB04F1200048
:1009800087B211E04EF6DF700090701EC0B20646CE
:1009900001A9085C3030C2B21F234146384600F03E
:1009A0002FFD07F1080087B2002EEBDC00BFBDE889
:1009B000FC810000AA0000202DE9F84304460D4602
:1009C000544800683C21B0FBF1F086B25148006801
:1009D000B0FBF1F201FB120710202B4664222146E6
:1009E00000904EF6DF7000F009FC4EF6DF700090CC
:1009F000A0B24FF478435422294600F001FD4EF690
:100A0000DF7004F10801009088B24FF47843492266
:100A1000294600F0F5FC4EF6DF7004F1100100905D
:100A200088B24FF478434D22294600F0E9FC4EF697
:100A3000DF7004F11801009088B24FF4784345222A
:100A4000294600F0DDFC4EF6DF7004F12001009035
:100A500088B24FF478432D22294600F0D1FC0A20B9
:100A600096FBF0F0303000F0FF084EF6DF7004F136
:100A70002801009088B24FF478434246294600F09E
:100A8000BFFC0A2096FBF0F100FB1160303000F053
:100A9000FF084EF6DF7004F13001009088B24FF489
:100AA00078434246294600F0ABFC4EF6DF7004F175
:100AB0003801009088B24FF478433A22294600F07A
:100AC0009FFC0A2097FBF0F0303000F0FF084EF654
:100AD000DF7004F14001009088B24FF47843424641
:100AE000294600F08DFC0A2097FBF0F100FB117005
:100AF000303000F0FF084EF6DF7004F1480100903E
:100B000088B24FF478434246294600F079FCBDE8AC
:100B1000F8830000AC0000201448806940F0080011
:100B2000124988610846806940F040008861104899
:100B3000006820F470000E4908600846006840F420
:100B40004010086020200A491031086009480068F8
:100B500020F47000074908600846006840F440101F
:100B600008602020034910310860704700100240DF
:100B7000000C01400018014000BFFEE701200549BC
:100B8000087000200449088004480068044908608F
:100B9000704700001E0000201C00002020000020E4
:100BA00018000020002004490870044908704FF420
:100BB00080700349086070471E0000200800002074
:100BC000140C01407047000000200F4908700F49C5
:100BD00008700F4908700F4908700F4800680F49E6
:100BE00008600D4800680E4908600B4800680D4910
:100BF0000860094800680C49086007480068A0F5CB
:100C00007A700A49086070473100002032000020E5
:100C1000330000203400002020000020900000203D
:100C200094000020980000209C000020A0000020DC
:100C3000704730B504460D4629462046FFF73CFB79
:100C400030BD00000CB54FF400602449086014204A
:100C500000F02CFA4FF400602049091D08601420B0
:100C600000F024FA002316E01C480838006801212F
:100C700021EA90200DF803000820194908600A2095
:100C800000F014FA08201649091D08600A2000F037
:100C90000DFA581CC3B2082BE6DB9DF80000114981
:100CA00008709DF80100104908709DF802000F4976
:100CB00008709DF803000E4908709DF804000D4966
:100CC00008709DF805000C4908709DF806000B4956
:100CD00008709DF807000A4908700CBD100C01400F
:100CE000101401400000002001000020020000203C
:100CF0000300002004000020050000200600002062
:100D000007000020704710B500F002F810BD000089
:100D10000CB50020019000903348006840F480300A
:100D20003149086000BF3048006800F4003000908E
:100D30000198401C0190009818B90198B0F5A06F77
:100D4000F1D12948006800F4003010B10120009072
:100D500001E0002000900098012843D1234800685A
:100D600040F01000214908600846006820F00300A8
:100D700008600846006840F0020008601A484068B1
:100D8000194948600846406848600846406840F491
:100D9000806048600846406820F47C10486008463F
:100DA000406840F4E81048600846006840F08070F1
:100DB000086000BF0C48006800F000700028F9D0FF
:100DC0000948406820F00300074948600846406829
:100DD00040F00200486000BF0348406800F00C008B
:100DE0000828F9D10CBD000000100240002002408C
:100DF0002DE9F04106460F4690460020294908801B
:100E000029490880012E06D0022E08D0032E0BD0CF
:100E1000042E12D10DE01020234908800DE06FF060
:100E20000F002149088008E06FF00F001D4908807D
:100E300003E010201B49088000BF00BF194800884C
:100E400038441A49088018480088404418490880E6
:100E500016490888C11700EB1171C1F30714144932
:100E60000888C11700EB1171C1F307150F2C08DAC0
:100E7000142D06DAC5EB05100E490844005D012863
:100E800001D1BDE8F08101200B4908700B480068D2
:100E900028300B4908604FF4C8719620FFF7C9FE4F
:100EA00000BFEEE780000020820000207C000020D0
:100EB0007E000020D40000207600002020000020CA
:100EC0007800002010B518480068401C16490860DA
:100ED00016480068401C1549086008460068B0F5CF
:100EE0007A7F1DD30020086011480068401C10491B
:100EF00008601048008810490988084423280FDA40
:100F00000B4800683C280BD20A210846FFF754FD25
:100F10000A216E20FFF774FC0A21AA20FFF7DEFCED
:100F2000FFF70AFA10BD0000200000202400002076
:100F3000AC000020A8000020AA00002010B5134833
:100F4000006840F0010011490860084640681049F7
:100F500008400E494860084600680E4908400B49A1
:100F600008600846006820F4802008600846406851
:100F700020F4FE0048604FF41F008860FFF7C3FEB6
:100F80004FF000600449086010BD000000100240EE
:100F90000000FFF8FFFFF6FE08ED00E000BFFEE7EF
:100FA00001464FF033324FF0553000EA5100091A34
:100FB00001EA020002EA9103C11801EB111000F0EE
:100FC0000F3101EB112101EB114101F03F0070479E
:100FD00010B500200BE0002106E00022C0EB00135A
:100FE000304C23445A54491C0F29F6DB401C14286A
:100FF000F1DB00200BE0002106E00022C0EB001333
:10100000294C23445A54491C0F29F6DB401C142850
:10101000F1DB0121234880F83E1080F8421080F86F
:10102000461080F85D1080F8611080F8651080F837
:101030007A1080F87D1080F8811080F8841080F894
:101040009A1080F89E1080F8A11080F8B61080F8F1
:10105000BA1080F8BE1080F84F1080F8541080F855
:101060006C1080F8701080F8741080F88C1080F884
:10107000901080F8A81080F8AC1080F8B01080F8BC
:10108000C71080F8CD1080F8E31080F8E71080F8E2
:10109000EB1080F8ED1080F8021180F80A1180F84A
:1010A000131110BD000200202C030020002100E0DD
:1010B000491C00EBC002B1EBC20FF9D3704700B579
:1010C000012000F0C7FA112000F0C4FA3A2000F025
:1010D000C1FA552000F0B8FA292000F0BBFA3620FA
:1010E00000F0B8FAC82000F0AFFA00BD08488069E7
:1010F00040F00800064988610648006820F00F00AB
:10110000044908600846006840F003000860704722
:1011100000100240000C01402DE9F84306460F463E
:101120009046002411E000250BE0012000903819C2
:1011300083B2701981B20122404600F05FF8681C4A
:1011400085B2102DF1DB601C84B2102CEBDBBDE806
:10115000F88300002DE9F84F06460F4690464FF001
:10116000000900241CE0002516E04846411C1FFA37
:1011700081F90D4931F810A04FF6FF70824509D072
:1011800001200090381983B2701981B201224046C3
:1011900000F034F8681C85B2102DE6DB601C84B2C8
:1011A000102CE0DBBDE8F88F2431000810B50346B1
:1011B0000C462A2000F04EFA181200F045FAD8B278
:1011C00000F042FA012000F03FFA3F2000F03CFA24
:1011D0002B2000F03FFA201200F036FAE0B200F0C7
:1011E00033FA012000F030FADF2000F02DFA2C2035
:1011F00000F030FA104600F027FA10BD2DE9F04754
:1012000081460C4616461D46089F4FF000082A20CE
:1012100000F020FA201200F017FAE0B200F014FA01
:101220003119491EC1F30F2000F00EFA3119491E81
:10123000C8B200F009FA2B2000F00CFA281200F0D6
:1012400003FAE8B200F000FA7919491EC1F30F2041
:1012500000F0FAF97919491EC8B200F0F5F92C200E
:1012600000F0F8F900BF04E0484600F0EDF908F19D
:10127000010806FB07F04045F6D8BDE8F0870000FE
:1012800000B55748406940F48070554948610846A8
:10129000806940F0080088610846806940F02000BD
:1012A00088610846806940F040008861084680698E
:1012B00040F4807088614B48006820F00F00494975
:1012C00008600846006840F003000860464800686F
:1012D00046490840444908600846006844490843B4
:1012E00041490860081F006800F0FF20091F0860DE
:1012F0000846006840F0BB1008603E4800680020C7
:101300003C4908600846006840F0BB300860081F90
:10131000006820F07040091F08600846006840F02F
:10132000304008603448406820F4702032494860FA
:101330000846406840F4302048600846006820F0C5
:101340000F0008600846006840F00B0008600020AD
:101350004FF020418861C861284908604FF0204063
:10136000806940F480504FF02041886108468069D0
:1013700040F4804088610846806940F01000886130
:101380000846C069C8610846806940F0010088616C
:101390000846C06940F47060C8610846D0F81C0176
:1013A00040F02800C1F81C0114480068C1F81C0175
:1013B0000846D0F81C0140F44070C1F81C010846F2
:1013C000D0F81C0140F001000C490860FFF777FEDF
:1013D000FFF78CFE012003491031086000BD0000BA
:1013E00000100240000C01400414014000F0FF0016
:1013F000BBFBFFBB04180140002001401C0100A002
:101400002DE9FF4F81B082468B461446202C01DB2C
:101410007F2C02DD05B0BDE8F08FA4F12000C4B23E
:10142000D04600253BE0204800EB0410465D1E48F6
:1014300000EB0411681C0F5CD9460020009025E0E9
:10144000304606EBD0714910A6EB4101012906D1C7
:1014500009F1080081B24046049AFFF7A7FE38461A
:1014600007EBD0714910A7EB4101012904D149468E
:101470004046049AFFF79AFE76107F1009F10100AA
:101480001FFA80F90098401CC0B20090009808280C
:10149000D6DB08F101001FFA80F8A81CC5B2102D98
:1014A000C1DB00BFB6E70000342900082DE9F84F82
:1014B00006460F4692464FF0000900241CE0002526
:1014C00016E04846411C1FFA81F90D4931F8108099
:1014D0004FF6FF70804509D001200090381983B283
:1014E000701981B201224046FFF788FE681C85B260
:1014F000102DE6DB601C84B2102CE0DBBDE8F88F19
:10150000243500082DE9F84F06460F4692464FF065
:101510000008002418E0002512E04046411C1FFA94
:1015200081F80B4931F8109001200090381983B2EE
:10153000701981B201224846FFF760FE681C85B22F
:10154000102DEADB601C84B2102CE4DBBDE8F88FC0
:10155000243300082DE9F84F06460F4692464FF017
:10156000000900241CE0002516E04846411C1FFA33
:1015700081F90D4931F810804FF6FF70804509D090
:1015800001200090381983B2701981B201224046BF
:10159000FFF734FE681C85B2102DE6DB601C84B2B8
:1015A000102CE0DBBDE8F88F242F00082DE9F84F60
:1015B00006460F4692464FF0000900241BE0002526
:1015C00015E04846411C1FFA81F90D4931F8108099
:1015D000B8F1000F09D001200090381983B27019BA
:1015E00081B201224046FFF709FE681C85B2102D2A
:1015F000E7DB601C84B2102CE1DBBDE8F88F000053
:10160000243100082DE9F84306460F461446984653
:10161000DDF8209012E014F8015B202D01DB7F2D16
:1016200000DD202543462A4639463046CDF8009055
:10163000FFF7E6FE06F1080086B200BF207800281A
:10164000E9D1BDE8F8830000014908807047000037
:101650000008006C0149088070470000FE07006C1C
:101660001CB5FEF70FFEFFF757FAFFF76BF801F016
:1016700003F8FFF705FEFFF727F800F095FCFE489A
:10168000FEF759FF052000F079FC1020FB49088087
:10169000FB490880A020FB490880FB490880012005
:1016A000FA4908700A20FA490870F5480088F94993
:1016B0000880F5480088F84908800020F74908703C
:1016C000D020F7490880F7490880A020F649088013
:1016D000F64908800D20F64908700A20F54908707F
:1016E000F0480088F4490880F0480088F3490880F1
:1016F0000020F349087000F033FD00F057FFC1E30C
:10170000FFF7A0FA01F00AF8EE48007800B9B9E353
:101710002020ED49086000F077FEEC48FEF70BFF53
:1017200000F088FDEA48FEF706FF00F019FDE948E1
:101730000288D4480188D1480088FEF702FFE648B5
:101740000288D9480188D6480088FEF704FF00F0D7
:10175000EDFBFFF73DFCE14800684FF47A72B0FB07
:10176000F2F1B1F1807F00D31DE021F07F40401EF7
:101770004FF0E022506150170F22002807DA1307BC
:101780001D0ED74B00F00F04241F1D5503E0130757
:101790001C0ED44B1C5400BF00204FF0E02290617F
:1017A0000720106100BF00260A200190CE4807687C
:1017B000FEF74EFF2020C449091F08604BE3CA48CA
:1017C0000068801B0A287DD3FFF73CFA00F0A6FFD3
:1017D000C5480668AE480078C0EB0010C34908440D
:1017E000AA490978405C012835D1A9480078C0EBA6
:1017F0000010BF490844A5490978405C58BB022045
:10180000A3490978C1EB0111B94A11449F4A1278E2
:101810008854FEF713FE3C2140F29320FFF709FAAB
:101820002020B44908600A216E20FEF7E9FF01205C
:10183000B149087095480078042101EB0010AF49C8
:10184000088093480078102101EB0010AC49088013
:101850000A20AC490870002449E0002543E0C4EBAD
:101860000410A2490844405D01283AD1C4EB041099
:101870009F49084410F80580B8F1000F2ADD0320C5
:1018800098FBF0F100FB118010B94FF4FC6001E00F
:101890004FF6E0708146210128014A46FFF706FE17
:1018A000C4EB041092490844405D401EC4EB04118F
:1018B0008F4A11444855C4EB041011460844405D5A
:1018C00038B900E0B5E20020C4EB0411874A1144A6
:1018D000485505E0210128014FF6E072FFF7E6FDCB
:1018E00000BF681CC5B20F2DB9DB601CC4B2142C3C
:1018F000B3DB70480078C0EB00107C4908446C49A9
:101900000978405C012835D16A480078C0EB0010A6
:101910007749084466490978405C58BB022065490C
:101920000978C1EB0111724A1144614A1278885456
:10193000FEF78CFD3C2140F29320FFF77AF920203E
:101940006C4908600A21AA20FEF7C8FF01206A49F5
:10195000087057480078042101EB0010674908809F
:1019600054480078102101EB0010654908800A20D6
:101970006449087052480078E8BB63480078D0BBDF
:101980004B4A10784B4A1178604A127812B14A1CBF
:10199000D1B210E05E4A127812B14A1ED1B20AE00A
:1019A0005C4A127812B1421ED0B204E05A4A127850
:1019B0000AB1421CD0B20F281CDA14291ADAC1EB82
:1019C0000112564B1A44125CA2B9304A1278904266
:1019D00003D12F4A127891420CD00122384B1A7051
:1019E0000201354B1A800A01344B1A80304A1070BC
:1019F000304A117000BF3248007800283AD0294898
:101A000000882D490988884204DA26480088001D8C
:101A1000244908802348008827490988884204DD32
:101A200020480088001F1F4908802048008823495B
:101A30000988884204DA1D480088001D1B49088077
:101A40001A4800881D490988884204DD1748008823
:101A5000001F1649088013480088174909888842E2
:101A60005FD11248008815490988884259D1002061
:101A7000134955E077E0000040420F005400002079
:101A8000500000205600002052000020600000207E
:101A9000610000205C0000205E0000205A00002051
:101AA0006600002062000020680000206400002022
:101AB00072000020730000206E00002070000020E3
:101AC0006C00002003000020140C0140002D3101A7
:101AD00080F0FA02580000206A000020C0000020B8
:101AE00018ED00E000E400E02000002000020020EB
:101AF0002C03002014180140B8000020BA00002078
:101B0000BC000020BE00002088000020350000201E
:101B1000360000203700002038000020D4000020CC
:101B20000870D9480088D9490988884205D1D84821
:101B30000088D8490988884215D0D5480188D248FC
:101B40000088FEF771FCD4480288D2480188CF484B
:101B50000088FEF700FDCD480088CB490880CD48BD
:101B60000088CB490880CD480078E8BBCC48007895
:101B7000D0BBCC4A1078CC4A1178CC4A12782AB122
:101B80004A1CD1B20122CA4B1A7019E0C94A127814
:101B90002AB14A1ED1B20222C54B1A7010E0C64AC1
:101BA00012782AB1421CD0B20322C14B1A7007E04E
:101BB000C24A127822B1421ED0B20422BC4B1A7023
:101BC0000F281EDA14291CDAC1EB0112BC4B1A448F
:101BD000125CB2B9BB4A1278904203D1BA4A127869
:101BE00091420ED0012200E00CE0AC4B1A700201D1
:101BF000B64B1A800A01B64B1A80AA4A1070AA4A3C
:101C0000117000BFA5480078F0B3B2480088AF4912
:101C10000988884204DAAF480088001DAD49088071
:101C2000AC480088A9490988884204DDA948008891
:101C3000001FA8490880A8480088A549098888424B
:101C400004DAA5480088001DA3490880A24800883E
:101C50009F490988884204DD9F480088001F9E49EB
:101C600008809C48008899490988884208D19A4888
:101C7000008897490988884202D100208749087066
:101C800096480088934900E01EE00988884205D103
:101C90009348008890490988884215D09048018867
:101CA0008E480088FEF7B6FB8E4802888A48018875
:101CB00088480088FEF745FC8648008887490880E8
:101CC000854800888649088087480078E8B38748B7
:101CD000006887490968884263D31F2285480188C4
:101CE00085480088FFF70EFC83490888C11700EB80
:101CF0001171C1F307187F490888C11700EB1171F2
:101D0000C1F307190120C9EB09116D4A114401F80B
:101D100008007648006800F5FA60C9EB0911774AB7
:101D200002EB410121F818007348008874490988C2
:101D3000084484B26F48008872490988084485B213
:101D40002046E11704EB117100E02AE0C1F3071A05
:101D50002846E91705EB1171C1F3071BF02C10DAC7
:101D6000B5F5A07F0DDABAF10F0F0ADABBF1140F47
:101D700007DACBEB0B105249084410F80A0001288F
:101D800005D10020584908704549087008E05A48B4
:101D90000480584805805548006828305449086038
:101DA00000BF00242FE0002529E0C4EB04105349B4
:101DB00001EB400030F81500F8B1C4EB041001EB62
:101DC000400030F8150049490968884215D80020BC
:101DD000C4EB04113A4A11444855C4EB0411474A74
:101DE00002EB410121F815001020230129010246D0
:101DF00000904EF6DF70FFF701FA681CC5B20F2D98
:101E0000D3DB601CC4B2142CCDDB3F480078002823
:101E10000FDD364800683D490968401A0A2808D98C
:101E2000FEF7D2FE00203A49088037490870394948
:101E300008703948006839490968401A322807D3C0
:101E400035480068354908600A210846FEF7B4FDA8
:101E50002020334908603348008833490988084402
:101E6000232807DA21480068C01B4EF6602188420B
:101E7000FFF4A5AC20202A490860FEF793FE00F08D
:101E8000D5F800BF3CE4000066000020620000209E
:101E900068000020640000206A0000205A00002032
:101EA0008800002060000020610000203100002038
:101EB0007400002032000020330000203400002095
:101EC000D400002072000020730000205C0000207D
:101ED0005E0000205000002052000020540000202E
:101EE000560000205800002076000020200000202E
:101EF000780000207E0000207C0000205804002094
:101F000080000020820000202A0000202C000020F9
:101F1000280000202B00002024000020A400002026
:101F200010180140A8000020AA00002010B50020D1
:101F30000DE0002107E00122C1EB01130E4C234408
:101F40001A544A1CD1B21429F5DB411CC8B20F281F
:101F5000EFDB01200DE0032107E00022C1EB0113BC
:101F6000054C23441A544A1CD1B21329F5DB411CF9
:101F7000C8B20E28EFDB10BDD400002010B500F46D
:101F8000E062074B1B684FF6FF042340044C2360BC
:101F90001946044B194341EA02031946236010BD58
:101FA0000CED00E00000FA0510B5D02015490880BE
:101FB000154908804FF4907014490880144908802E
:101FC000114800880F490880114800880F4908808F
:101FD0000D201049087012200F4908700A48008827
:101FE0000E4908800A4800880D49088000200D49E4
:101FF00008700D4802880648018803480088FEF7EB
:10200000AAFA10BD660000206200002068000020CF
:102010006400002072000020730000206E00002089
:10202000700000206C0000206A00002008B500F05D
:1020300097F84EF6177000232BA24FF4877100908B
:102040002320FFF7DFFA2E4800683C2804D0DC216B
:102050005020FEF7B1FC09E04EF617704FF47843BC
:1020600028A2DC2100904620FFF7CCFAAA214120CB
:10207000FEF7C6FBAA218220FEF730FC2548008827
:102080002549098888420ADA4EF617704FF47843DA
:1020900022A2642100905A20FFF7B4FA1AE01D48EA
:1020A00000881D49098888420ADD4EF617704FF4F2
:1020B00078431DA2642100905A20FFF7A3FA09E09B
:1020C0004EF617704FF478431AA264210090502006
:1020D000FFF798FA4EF6177000231AA23C210090E1
:1020E0001A20FFF78FFA08BD3D3D3D3D3D3D47615C
:1020F0006D65204F7665723D3D3D3D3D3D000000E4
:10210000AC00002054696D65206973204F766572BC
:1021100000000000A8000020AA0000205032205734
:10212000696E21212100000050312057696E212164
:10213000210000004E6F2057696E6E6572212121CB
:10214000000000003C436C69636B2053746172743F
:1021500020746F20526573746172743E0000000039
:10216000F8B50026002520E000241BE00120C5F57D
:10217000A07293B2A1B22D4A009032F8262090B2FC
:102180000122FFF73BF80120C5F1300293B2A1B262
:10219000264A009032F8262090B20122FFF72EF84E
:1021A000761C641CF02CE1DB6D1C102DDCDB0026A2
:1021B000002522E000241DE00120C5F5A07293B2A5
:1021C000A1B21B4A009032F8262090B20122FFF7FC
:1021D00015F80120C5F5A07293B204F1E10291B2A5
:1021E000134A009032F8262090B20122FFF706F839
:1021F000761C641C102CDFDB6D1CB5F5907FD9DBE1
:10220000002640F201103023D122102100904EF61A
:10221000DF70FEF7F3FF20200023F0221946009024
:102220004EF6DF70FEF7EAFFF8BD00003437000815
:102230003473000808B5FFF793FF4EF617704FF49C
:10224000784332A24FF4877100901E20FFF7DAF92D
:102250004EF617704FF4784332A240F20911009005
:102260001E20FFF7CFF94EF61770002333A2F0219E
:1022700000901420FFF7C6F94EF61770002335A220
:10228000DC2100901420FFF7BDF94EF617700023F3
:1022900036A2C82100901420FFF7B4F94EF617704B
:1022A000002339A2B42100901420FFF7ABF94EF6B9
:1022B0001770002338A28C2100901420FFF7A2F998
:1022C0004EF61770002339A2782100901420FFF7F2
:1022D00099F94EF61770002338A26421009014205B
:1022E000FFF790F94EF61770002339A250210090A5
:1022F0001420FFF787F94EF6177000233BA23C210C
:1023000000901420FFF77EF908BD000047616D655D
:102310002052756C6573206F66205468697320477E
:10232000616D65002D2D2D2D2D2D2D2D2D2D2D2D5E
:102330002D2D2D2D2D2D2D2D2D2D2D004B65796223
:102340006F61726420436F6E74726F6C2D2D2D2D32
:102350002D00000055703A204B657920352C204423
:102360006F776E3A204B6579203200004C656674B9
:102370003A204B657920312C2052696768743A20E5
:102380004B657920330000004963652057616C6C10
:102390003A204B65792038004A6F795061642043B8
:1023A0006F6E74726F6C2D2D2D2D2D004D6F766517
:1023B0006D656E74733A202B000000004963652040
:1023C00057616C6C3A20524C6F77202841290000ED
:1023D00054727920746F20636F6C6C656374206D28
:1023E0006F726520636F696E0000000046696E6958
:1023F00073682047616D652077697468696E203164
:10240000206D696E0000000038B5FFF7A9FE4EF69A
:1024100017704FF4784349A2FA2100901E20FFF76D
:10242000F1F84EF617704FF4784344A2FA21009069
:102430001F20FFF7E7F84EF617704FF4784345A2D8
:10244000FA2100902020FFF7DDF800240BE04EF683
:10245000177004F11E01009088B2002343A2DC2112
:10246000FFF7D0F8641CB42CF1DB4EF61770002394
:102470003FA2C82100901E20FFF7C4F84EF6177047
:1024800000233BA2C92100901F20FFF7BBF84EF6A6
:102490001770002339A2A02100901E20FFF7B2F888
:1024A0004EF61770002335A2A12100901F20FFF7E0
:1024B000A9F800240BE04EF6177004F11E010090FD
:1024C00088B2002329A28C21FFF79CF8641CB42C4D
:1024D000F1DB4EF6177000232DA2782100901E200C
:1024E000FFF790F84EF61770002329A2792100908B
:1024F0001F20FFF787F84EF61770002327A2502100
:1025000000901E20FFF77EF84EF61770002323A2DE
:10251000512100901F20FFF775F800240BE04EF6C4
:10252000177004F11E01009088B200230FA23C2115
:10253000FFF768F8641CB42CF1DB38BD47726F7587
:102540007020496E666F726D6174696F6E202842EB
:10255000313529002D2D2D2D2D2D2D2D2D2D2D2DD0
:102560002D2D2D2D2D2D2D2D2D2D2D003D0000003F
:102570003131353532303331383100005965756EBF
:1025800067204D616E2C2054686F6D6173000000F0
:10259000313135353231333233380000576F6E67A1
:1025A000204D616E2048656900000000F8B50026E6
:1025B000002415E0002510E00120C4F1E10293B2EF
:1025C00005F12D0291B21B4A009032F8262090B2FC
:1025D0000122FEF713FE761C6D1C962DECDB641CAD
:1025E000952CE7DB00264EF617704FF4784312A2C5
:1025F000FA2100901E20FFF705F84EF617704FF4F1
:1026000078430DA2FB2100901F20FEF7FBFF4EF642
:10261000177000230EA20A2100902020FEF7F2FF7F
:102620004EF6177000230AA20B2100902120FEF71E
:10263000E9FFF8BD34C3000857454C434F4D4520D2
:10264000544F204945524720333831302121210051
:10265000436C69636B20537461727420746F2050F3
:102660006C6179212121000002488068C0F380203C
:1026700070470000001001402248806940F01000BF
:10268000204988612048406820F47F401E49486006
:102690000846406840F4084048600846C06840F476
:1026A0000060C8600846C06840F48060C860154893
:1026B000806940F00100134988611448006920F4E2
:1026C000704112480161006940F400510F480161F6
:1026D0000F48006840F400600D4908600C480C3059
:1026E000006840F400600A490C3108601021094874
:1026F00001700948006840F480704FF0E021C1F893
:102700000401704700100240001001400000014029
:102710000004014028E400E004E100E010B537487F
:1027200004683748007880B13648007880B90120C5
:102730003449087034480068201A1E2808D33248EB
:10274000046001203149087002E000202D49087022
:102750002F48007880B12F48007880B901202D499A
:1027600008702D480068201A1E2808D32A480460E3
:1027700002202649087002E00020264908702748F8
:10278000007880B12648007880B90120244908707B
:1027900024480068201A1E2808D322480460032019
:1027A0001A49087002E000201D4908701E48007890
:1027B00080B11E48007880B901201C4908701C486F
:1027C0000068201A1E2808D31948046004200F4905
:1027D000087002E00020154908701648007858B1CA
:1027E00015480068201AB0F5FA7F05D3FDF76CFE96
:1027F000024800681049086010BD00002000002059
:1028000004000020350000203C000020750000205E
:1028100005000020360000204000002006000020B7
:10282000370000204400002007000020380000206E
:1028300048000020000000204C00002070B5064633
:102840000C4631480568732E11D13048047054B1DC
:102850002F480068281A1E2854D32D4805600120EF
:102860002C4908704EE00020284908704AE0722E7A
:1028700011D12948047054B128480068281A1E282C
:1028800040D3264805600220224908703AE0002023
:102890002149087036E07A2E11D12148047054B1D4
:1028A00020480068281A1E282CD31E4805600320E3
:1028B0001849087026E000201949087022E0692EA6
:1028C00011D11948047054B118480068281A1E28FC
:1028D00018D31648056004200E49087012E0002045
:1028E000114908700EE0752E0CD15CB110480068DB
:1028F000281AB0F5FA7F05D3FDF7B0FD024800684D
:102900000B49086070BD000020000020310000204D
:10291000900000207400002032000020940000206D
:102920003300002098000020340000209C0000208C
:10293000A0000020000000000000000000000000D7
:10294000000000000000000000001FCC000C000090
:1029500000000000000008003000600008003000A7
:1029600060000000022003FC1E20022003FC1E2049
:102970000220000000000E1811043FFF10840C78A4
:10298000000000000F0010840F3800C00778188482
:102990000078000000780F8410C411240E9800E421
:1029A00000840008080068007000000000000000BB
:1029B0000000000000000000000007E018182004DC
:1029C00040020000000040022004181807E0000048
:1029D000000000000240024001800FF00180024030
:1029E000024000000080008000800FF8008000801E
:1029F000008000000001000D000E0000000000003B
:102A00000000000000000080008000800080008046
:102A1000008000800000000C000C0000000000009E
:102A200000000000000000060018006001800600A1
:102A300018002000000007F008081004100408081F
:102A400007F000000000080408041FFC0004000454
:102A50000000000000000E0C10141024104411841B
:102A60000E0C000000000C18100411041104128850
:102A70000C700000000000E00320042408241FFC68
:102A80000024000000001F98108411041104108815
:102A900010700000000007F0088811041104188865
:102AA0000070000000001C00100010FC13001C004F
:102AB0001000000000000E381144108410841144EE
:102AC0000E38000000000700088C104410440888ED
:102AD00007F00000000000000000030C030C0000E1
:102AE00000000000000000000001010600000000DE
:102AF00000000000000000800140022004100808CF
:102B000010040000022002200220022002200220E5
:102B100002200000000010040808041002200140F8
:102B20000080000000000E001200100C106C1080DD
:102B30000F00000003E00C1813E4142417C4082845
:102B400007D000000004003C03C41C40074000E420
:102B5000001C000410041FFC1104110411040E8851
:102B60000070000003E00C1810041004100410089A
:102B70001C10000010041FFC1004100410040808AE
:102B800007F0000010041FFC1104110417C4100406
:102B90000818000010041FFC1104110017C01000D9
:102BA0000800000003E00C181004100410441C7806
:102BB0000040000010041FFC10840080008010847E
:102BC0001FFC10040000100410041FFC100410046B
:102BD0000000000000030001100110011FFE1000A2
:102BE0001000000010041FFC110403801464181C62
:102BF0001004000010041FFC100400040004000472
:102C0000000C000010041FFC1F0000FC1F001FFC34
:102C10001004000010041FFC0C04030000E0101856
:102C20001FFC100007F00808100410041004080826
:102C300007F0000010041FFC10841080108010802A
:102C40000F00000007F0081810241024101C080AB8
:102C500007F2000010041FFC1104110011C0113014
:102C60000E0C000400000E1C11041084108410448B
:102C70001C3800001800100010041FFC1004100085
:102C80001800000010001FF81004000400041004D5
:102C90001FF8100010001E0011E0001C00701380CF
:102CA0001C0010001FC0103C00E01F0000E0103CA2
:102CB0001FC000001004180C163401C001C01634E7
:102CC000180C100410001C00130400FC13041C005A
:102CD000100000000804101C1064108413041C046D
:102CE000101800000000000000007FFE40024002BB
:102CF00040020000000030000C0003800060001C57
:102D00000003000000004002400240027FFE00007D
:102D100000000000000000002000400040004000D3
:102D2000200000000001000100010001000100017D
:102D300000010001000040004000200000000000F1
:102D400000000000000000980124014401440144F7
:102D500000FC000410001FFC00880104010400882E
:102D600000700000000000700088010401040104EC
:102D700000880000000000700088010401041108B0
:102D80001FFC0004000000F8014401440144014418
:102D900000C800000000010401040FFC110411042C
:102DA00011001800000000D601290129012901C9DC
:102DB0000106000010041FFC008401000100010452
:102DC00000FC000400000104190419FC00040004C4
:102DD000000000000000000300010101190119FEBC
:102DE0000000000010041FFC0024004001B4010C8E
:102DF000010400000000100410041FFC0004000483
:102E000000000000010401FC0104010001FC0104B8
:102E1000010000FC010401FC008401000100010428
:102E200000FC0004000000F8010401040104010496
:102E300000F80000010101FF008501040104008881
:102E4000007000000000007000880104010401050A
:102E500001FF00010104010401FC008401040100E0
:102E600001800000000000CC012401240124012481
:102E70000198000000000100010007F801040104AE
:102E800000000000010001F8000400040004010833
:102E900001FC0004010001800170000C00100160C1
:102EA0000180010001F0010C003001C00030010C74
:102EB00001F0010000000104018C00740170018C1C
:102EC00001040000010101810171000E0018016080
:102ED0000180010000000184010C013401440184DF
:102EE000010C0000000000000000000001003EFC9A
:102EF000400240020000000000000000FFFF000050
:102F0000000000000000400240023EFC0100000002
:102F100000000000000060008000800040004000D1
:102F200020002000FFFFFFFFFFFF9DF7F6CDCA72D4
:102F3000694A694A694A694A8962B6C55CEFFFFF16
:102F4000FFFFFFFFFFFFFFFF5DEF2EA4466A065A5B
:102F50000E9C6C8B6C8B0E9C276206620DA4FBE6AC
:102F6000FFFFFFFFFFFF5DEFCC9B0CB46772444196
:102F7000E14843694369E1486449065AEBB38B9BD6
:102F8000DAE6FFFFDFFFF2B4AAAB2BBC676A0000F2
:102F9000C24023612361C24800004762CFCC0CB419
:102FA0004FAC9EF7DBE6AB9B0BBC2BBC08938118A8
:102FB00020104118401820106118AC93F5DD52D54F
:102FC000ECA3F7CD79DE28932BBC2BBC0CBCE98A93
:102FD000A21881106110A2180A8B93DDD4DD15E6CA
:102FE000B0BC74C5B1B48AA369A3499B499B8FC483
:102FF000F5E510CD10CDF4DDCFC4499B299B2DB450
:103000004EB44FAC877A499BABA3DAE637DE4A9BD6
:103010008EC415E615E6AFC44A93D5D5DAE62DB4CD
:10302000299BE892877A676A38C6BEFF9AD65CEF1A
:10303000266A15E615E6877A1CE79AD69EF7DBDE48
:103040008862C78A677A676A38C6DBDE410875B569
:10305000266A15E615E6877AD6BD821096B5DBDEC0
:103060008862C78AD6C5854938C6DFFFDBDE7DEFBB
:10307000266A15E615E6A77A3CEFDBDE9EF7DBDE77
:10308000E649D1AC79DEC8828862D7BD17C690AC5C
:10309000B4DD15E636E6F5DD90ACF7C5D7BD4C736B
:1030A000AC9374BD5CEF2EACABABCD8B2F9C93D5AA
:1030B00015E636E698EEB8EE36DEB1ACEE8B12BD14
:1030C0002EACB9DEFFFF3CEFCC9BAFC415E615E696
:1030D00015E616E677EEB8EEB8EE77E6F5DD2EA447
:1030E000BADEDFFFFFFFFFFF1CEF2EA42DB452CD91
:1030F00015E615E636E636E673D56EB44FACBADEA5
:10310000DFFFFFFFFFFFFFFFFFFF5DEF74C5CCA3F5
:10311000CCA3CCA3CCA3CC9BAC9B74C51BE7FFFF7B
:10312000FFFFFFFFFFFFFFFFDFFF59D66A624A6222
:103130004A624A624A624A624A626A6259D6DFFF5A
:10314000FFFFFFFFFFFFBEF739CE6A6257C677C6A3
:1031500077C657C657C677C677C657C64A6239CEAE
:10316000DFFFFFFFDFFF38CE6A6277CEA959A8598B
:10317000885926512651A859A859C95998CE4A624A
:1031800039CEDFFF39CE295A77CEA85906410641FC
:10319000265108C208C2265106410641A85998CEB8
:1031A000095A59D64749A959A959064106412649FC
:1031B00008C2E8B1E8B108C2064906410641A9596A
:1031C000A9594749E538841806414749474967499D
:1031D00028AA28B228B228AA4749474947490641A0
:1031E0008418E538E5384310062997C698C698CE66
:1031F000F8DE18DF18DFF8DE97C698C698C60529EE
:103200004310E5380539A3186310C52046298739CE
:10321000EBC58CDE8CDEEBC566314629C52063101C
:10322000A3180539276229ADA318A418D8CE97C6CC
:1032300085392BCE2BCE8531B8CED8CEA418A31885
:1032400049AD075A47628BD68ABD0429D8CE98C6A5
:1032500065312BCE2BCE6531D8CED8CEE4208ABDB9
:103260008BD6276247628BDE8BDEEBC504292529CE
:103270000ACE8BDE8BDEEAC5042904290BCE8BDE59
:103280008BDE276247628BD68BDE8BDE6BD66BD6EE
:103290008BDE8BDE8BDE8BDE6BD66BD68BDE8BDE36
:1032A0008BDE276239CE47628BDE8BDE8BDE8BDED8
:1032B0008BDE8BDE8BDE8BDE8BDE8BDE8BDE8BDEC6
:1032C000276259D6DFFF18CE47628BDE8BDE8BDE9E
:1032D0008BDE8BDE8BDE8BDE8BDE8BDE8BDE476266
:1032E00038CEDFFFFFFFBEF718CE47628BD68BDEEE
:1032F0008BDE8BDE8BDE8BDE8BDE6BD6276238CEF1
:10330000BFFFFFFFFFFFFFFFDFFF39CE47624762CE
:1033100047624762476247624762476259CEDFFFB2
:10332000FFFFFFFF9FF77CAD7A6B7A6B7A6B7A6B4E
:103330007A6B7A6B7A6B7A6B7A6B7A6B7A6B7A6B65
:103340007CAD9FF759523ECF9ED79ED75D9F3D776C
:103350003D779ECF9ED79EBF3D775E9F5EA77EBF87
:103360003ECF5952F8417ED79EC77D8F5D777E9FB5
:10337000BECFBED77E9F5D7F9EA79EA7BEC7BED78E
:103380007ED7F841F8415EBF3D775D7F9EB7BED7DF
:10339000BEC75D7F5D8F9EB77EA7BED7BECF5D8F58
:1033A0005EBFF841F8415EBF5D8FBECFDFDF7E9F1D
:1033B0005D779EBF7D8FBECFBED79EB75D7F3D6FD1
:1033C0005EBFF841F8417ED7BFDFBEC75D8F7D8FFE
:1033D0009EAF7EA7BED7BECF7D9F3D6F3D6F3D6F39
:1033E0005EBFF841F8417ECF9EAF5D779EAF7D977F
:1033F000BEC7BED7BECF5D773D6F3D6F3D6F3D779A
:103400005EBFF841F8415EBF5D879EA79EAFBECF0D
:10341000BED77D973D773D6F3D6F3D6F7D97BECFAA
:103420007ED7F841F8417ECF7EAF9EB7BED7BEBFF4
:103430005D7F3D6F3D6F3D6F5D7F9EAFBEC75D8F12
:103440005EBFF841F8417ECFBED7BED79EA75D775D
:103450003D6F3D6F5D775D87BECF9EB75D7F9EB749
:103460007ECFF8414C21BB9EDFEFDFDFBEBFBEBF8A
:10347000BEBFBEBFBEC7DFEFDFDFBEBFDFDFDFEF38
:10348000BB9E4C212C19983D19461946F945194601
:10349000F945F9451946D845D945F945194619461A
:1034A000983D2C192C19D83DBC3E7B3EFC3E5A3E23
:1034B000F93DBC3E193ED83D3A3EFC3EFD3EFD3E48
:1034C000D83D2C192C19B83D9B3EDC3E3A3E3A3E85
:1034D0007B3EF93DF93D7B3EFD3E1D3FBC3E193E26
:1034E000983D2C19AD29983D7B3EB83D5A3E193E7A
:1034F000B83DB83DBC3EDC3EDC3E5B3EB83DB83D31
:10350000573DAD299EF7F7944F1A2F1A2F1A2F1AED
:103510002F1A2F1A2F1A2F1A2F1A2F1A2F1A4F1A43
:10352000F7949EF7FFFFFFFFDFFFFBDE59CEE020A1
:10353000E020E020E020E020E02079CEFBDEDFFF8D
:10354000FFFFFFFFFFFFFFFFDBDE0321422943E612
:1035500043E643E643E643E643E62329C218FBDE9F
:10356000FFFFFFFFDFFFBAD6A139A6F608FFDCFF99
:10357000DCFFDCFFDCFFDCFFDCFF08FFA3FE8139A2
:103580001BE7DFFFDBDE4329C6F6DDFFDCFFE4FEE1
:10359000E4FEE4FEE4FEE4FEE4FE9AFF01ED42EE0A
:1035A000E318DBDE58CE623108FFDCFFE4FEE4FE08
:1035B000DBFFDBFFDBFF42EDC3FEC4FE01ED62F685
:1035C000022158CE002164EEDBFFE4FEE3FEE4FEC0
:1035D000DCFFE3FEE3FE21EDC3FEE3FEE3FE21EDAF
:1035E00062EE0021002164EEDBFFE4FEE3FEE4FE78
:1035F000DCFFE3FEE3FE21EDC3FEE3FEE3FE21ED8F
:1036000063EE0021002164EEDBFFE4FEE3FEE4FE56
:10361000DCFFE3FEE3FE21EDC3FEE3FEE3FE21ED6E
:1036200063EE0021002164EEDBFFE4FEE3FEE4FE36
:10363000DCFFE3FEE3FE21EDC3FEE3FEE3FE21ED4E
:1036400063EE0021002164EEDBFFE4FEE3FEE4FE16
:10365000DCFFE3FEE3FE21EDC3FEE3FEE3FE21ED2E
:1036600063EE0021002164EEDBFFE4FEE3FEE4FEF6
:10367000DCFFE3FEE3FE21EDC3FEE3FEE3FE21ED0E
:1036800063EE00214008002108FFBBFFC3FEE4FEFB
:10369000BBFF21ED21ED21EDC3FEA3FE01ED62F69E
:1036A000222138C6BAD6E22082FE01ED01EDE3FE0A
:1036B000E3FEE3FEE3FEE3FEE3FE01EDE1EC82FE6A
:1036C0008210BAD6DFFF79D6C04162F662FE21EDE4
:1036D00021ED21ED21ED21ED21ED62FE82FEC141C2
:1036E000DBDEDFFFFFFFFFFF9AD60321222962EE18
:1036F00062EE62EE62EE62EE62EE2229A218BAD6A5
:10370000FFFFFFFFFFFFFFFFDFFFBAD618C620292C
:103710002029202920292029202938C69AD6DFFFF0
:10372000FFFFFFFFB8019600B8019600B8019600B0
:10373000000000004F330000CC320000AC3200002B
:10374000AC320000AC320000AC320000AC32000001
:10375000AC320000AC320000AC320000AC320000F1
:10376000AC3200000E3B0000ED2A00004A220000AF
:103770002E330000CC320000AC320000AC3200002E
:10378000AC320000AC320000AC320000AC320000C1
:10379000AC320000AC320000AC320000AC320000B1
:1037A0000D330000ED2A00004A220000ED32000037
:1037B000ED320000AC320000AC320000AC32000050
:1037C000AC320000AC320000AC320000AC32000081
:1037D000AC320000AC320000AC320000ED32000030
:1037E0004E3300006A2A0000ED2A0000ED3200008E
:1037F000AC320000AC320000AC320000AC32000051
:10380000AC320000AC320000AC320000AC32000040
:10381000AC320000AC320000CC3200004F3300006C
:103820002A2200000E3300000D330000AC320000ED
:10383000AC320000AC320000AC320000AC32000010
:10384000AC320000AC320000AC320000AC32000000
:10385000AC320000CC3200004E3300006B2A000076
:103860008C2A0000ED320000AC320000AC320000C7
:10387000AC320000AC320000AC320000AC320000D0
:10388000AC320000AC320000AC320000AC320000C0
:10389000EC3200002E3300002A220000E81900005C
:1038A0000D330000CC320000AC320000AC3200001E
:1038B000AC320000AC320000AC320000AC32000090
:1038C000AC320000AC320000AC320000CC32000060
:1038D0006F3B00006B220000AC2A00004F3B000051
:1038E000CC320000AC320000AC320000AC32000040
:1038F000AC320000AC320000AC320000AC32000050
:10390000AC320000AC320000CC3200002E3B000094
:10391000AC2A00004A2200002E330000CC32000006
:10392000AC320000AC320000AC320000AC3200001F
:10393000AC320000AC320000AC320000AC3200000F
:10394000AC320000CC3200004F3B0000AC2A00003B
:103950002A220000903B0000CC320000AC32000074
:10396000AC320000AC320000AC320000AC320000DF
:10397000AC320000AC320000AC320000AC320000CF
:10398000CC3200000E330000AC2200006A2A000096
:103990000E330000ED320000CC320000AC320000EB
:1039A000AC320000AC320000AC320000AC3200009F
:1039B000AC320000AC320000AC320000AC3200008F
:1039C000ED3200002E3300004A220000ED320000EC
:1039D0000E330000AC320000AC320000AC3200000C
:1039E000AC320000AC320000AC320000AC3200005F
:1039F000AC320000AC320000AC320000ED3200000E
:103A00004F3B00006B2200008B2A0000ED320000CB
:103A1000AC320000AC320000AC320000AC3200002E
:103A2000AC320000AC320000AC320000AC3200001E
:103A3000AC320000AC320000CC3200004F3B000042
:103A40004A220000AC2A00000D330000CC320000F6
:103A5000AC320000AC320000AC320000AC320000EE
:103A6000AC320000AC320000AC320000AC320000DE
:103A7000AC320000CC3200004F3B0000CC2A0000EA
:103A80004A2200002E330000CC320000AC3200008D
:103A9000AC320000AC320000AC320000AC320000AE
:103AA000AC320000AC320000AC320000AC3200009E
:103AB000AC320000ED3200000E2B0000CD2A0000D9
:103AC0002E3B0000CC320000AC320000AC320000D3
:103AD000AC320000AC320000AC320000AC3200006E
:103AE000AC320000AC320000CC320000EC320000FE
:103AF0006F3B0000954C0000777D0000F5640000EE
:103B0000F5640000F5640000F5640000F564000051
:103B1000F5640000F5640000F5640000F564000041
:103B2000F5640000735C00008C2A00006B2A000022
:103B3000123C000057750000F5640000F5640000B9
:103B4000F5640000F5640000F5640000F564000011
:103B5000F5640000F5640000F5640000166D0000D7
:103B6000166D0000CD2A00006B2A0000903B00007B
:103B7000777D0000166D0000F5640000F56400001C
:103B8000F5640000F5640000F5640000F5640000D1
:103B9000F5640000F5640000F5640000577500004E
:103BA000ED2A0000AB3200007033000057750000B2
:103BB000F5640000F5640000F5640000F5640000A1
:103BC000F5640000F5640000F5640000F564000091
:103BD000F5640000F5640000777D00000E330000FE
:103BE00009220000B13B000057750000F66C000090
:103BF000F5640000F5640000F5640000F564000061
:103C0000F5640000F5640000F5640000F564000050
:103C1000F5640000577D0000ED2A0000AC32000082
:103C2000ED2A000077750000F5640000F5640000DF
:103C3000F5640000F5640000F5640000F564000020
:103C4000F5640000F5640000F5640000F564000010
:103C5000577D0000ED3200002A220000A81100006C
:103C6000F664000057750000F5640000F56400007C
:103C7000F5640000F5640000F5640000F5640000E0
:103C8000F5640000F5640000F5640000166D0000A6
:103C90000E3300000A1A0000ED32000094540000B8
:103CA000166D0000F5640000F5640000F564000086
:103CB000F5640000F5640000F5640000F5640000A0
:103CC000F5640000F5640000777D0000325C0000C0
:103CD000CD2A00004A220000F6640000777D000033
:103CE000F5640000F5640000F5640000F564000070
:103CF000F5640000F5640000F5640000F564000060
:103D0000F5640000166D00004E3B00006B220000C1
:103D10004A220000B5540000166D0000F564000052
:103D2000F5640000F5640000F5640000F56400002F
:103D3000F5640000F5640000F5640000F56400001F
:103D400057750000535C0000CD2A0000AB32000024
:103D5000F23B0000777D0000F5640000F564000090
:103D6000F5640000F5640000F5640000F5640000EF
:103D7000F5640000F5640000F5640000F5640000DF
:103D8000577500000E3300008B2A0000B13B000085
:103D9000376D0000F5640000F5640000F564000074
:103DA000F5640000F5640000F5640000F5640000AF
:103DB000F5640000F5640000F5640000577D000024
:103DC0000E3300008C2A0000CD2A00003775000059
:103DD000166D0000F5640000F5640000F564000055
:103DE000F5640000F5640000F5640000F56400006F
:103DF000F5640000F5640000577500008F43000073
:103E00006B2200000D330000D55C00003775000008
:103E1000F5640000F5640000F5640000F56400003E
:103E2000F5640000F5640000F5640000F56400002E
:103E3000F564000057750000B04B0000CC2A00006C
:103E40008B2A0000F23B0000577D0000F564000063
:103E5000F5640000F5640000F5640000F5640000FE
:103E6000F5640000F5640000F5640000F5640000EE
:103E7000166D0000156D00000D3300004F3300007B
:103E8000366D0000F5640000F5640000F564000084
:103E9000F5640000F5640000F5640000F5640000BE
:103EA000F5640000F5640000F5640000777D000013
:103EB0006F3B00007B96000099650000795D000073
:103EC000795D0000795D0000995D0000995D00005A
:103ED000995D0000795D0000795D0000795D00006A
:103EE000795D0000FA7D0000F5740000AB3200003F
:103EF000FA8D000099650000795D0000795D000091
:103F0000795D0000995D0000995D0000995D0000F9
:103F1000995D0000795D0000795D0000995D000009
:103F2000D9750000367500008B2A0000F56C000082
:103F3000DA650000795D0000795D0000795D0000C0
:103F4000995D0000995D0000995D0000795D0000B9
:103F5000795D0000795D0000795D0000B9650000C1
:103F6000F98D0000CC320000F56C0000DA6D000025
:103F7000795D0000795D0000795D0000995D0000C9
:103F8000995D0000995D0000995D0000795D000079
:103F9000795D0000795D0000B96500005A96000067
:103FA0006B2A000036750000DA6D0000795D0000B4
:103FB000795D0000795D0000795D0000995D000089
:103FC000995D0000995D0000795D0000795D000059
:103FD000795D0000BA6500001A9600000D3B0000F4
:103FE000325C0000DA6D0000795D0000795D000050
:103FF000795D0000795D0000995D0000995D000029
:10400000995D0000795D0000795D0000795D000038
:10401000995D00001A8E00006A2A0000C81900008D
:10402000FA750000995D0000795D0000795D00007F
:10403000795D0000995D0000995D0000995D0000C8
:10404000795D0000795D0000795D0000795D000018
:104050005B9600000E3B0000D05300009C960000D1
:10406000995D0000795D0000795D0000795D0000D8
:10407000995D0000995D0000995D0000795D000088
:10408000795D0000795D0000BA6500001A860000C5
:10409000315C00006B2A00003B7E0000B965000027
:1040A000795D0000795D0000795D0000995D000098
:1040B000995D0000995D0000795D0000795D000068
:1040C000795D0000995D00005B960000F1530000EF
:1040D000ED3200009C9E0000995D0000795D0000BB
:1040E000795D0000795D0000995D0000995D000038
:1040F000995D0000795D0000795D0000795D000048
:10410000995D00001A860000315C0000AC320000AE
:10411000777D0000B9650000795D0000795D0000E1
:10412000795D0000995D0000995D0000995D0000D7
:10413000795D0000795D0000795D0000795D000027
:10414000B9650000198E0000CC320000577D0000D8
:10415000FA750000795D0000795D0000795D00006E
:10416000995D0000995D0000995D0000995D000077
:10417000795D0000795D0000795D0000B96500009F
:104180003A9600006F430000B04B0000BA6D00008B
:10419000795D0000795D0000795D0000795D0000C7
:1041A000995D0000995D0000995D0000795D000057
:1041B000795D0000795D0000995D00005B9600006C
:1041C000CC320000F15300001A7E0000995D00001F
:1041D000795D0000795D0000795D0000995D000067
:1041E000995D0000995D0000795D0000795D000037
:1041F000795D0000995D00003A8E0000B46C00000B
:10420000AC320000F98D0000B9650000795D000056
:10421000795D0000795D0000995D0000995D000006
:10422000995D0000795D0000795D0000795D000016
:10423000995D0000DA6D0000D98D000094640000E3
:104240001B7E0000795D0000795D0000795D000053
:10425000795D0000995D0000995D0000995D0000A6
:10426000795D0000795D0000795D000099650000CE
:104270005B9600003B8E0000384D00005434000077
:1042800034340000543C0000174D0000DFEF000004
:10429000DFEF0000B63C000054340000343400006E
:1042A000543C0000FA75000016750000CC32000086
:1042B000D9850000174D000054340000343400004C
:1042C00034340000D7440000DFEF0000DFEF0000CF
:1042D000D64400003434000034340000953C000023
:1042E000DA6D0000577500008B2A0000F56C0000A5
:1042F000795D0000543C0000343400003434000088
:10430000F7440000DFEF0000DFEF0000B6440000DC
:104310003434000034340000543C0000785D000068
:10432000FA8500006B2A0000166D0000795D000020
:10433000543C00003434000054340000D6440000E3
:10434000DFEF0000DFEF0000F7440000543400000E
:1043500034340000543C0000595500007C960000A5
:10436000AC2A00005675000099650000743C0000FE
:104370003434000034340000B6440000DFEF0000A5
:10438000DFEF0000184D000054340000343400000A
:1043900034340000795D00001A8E0000CC32000039
:1043A00053540000795D0000543C00003434000098
:1043B00034340000743C0000584D0000DFEF000072
:1043C000584D0000543400003434000034340000F0
:1043D000385500001A8E00004A2200006B220000AF
:1043E000B9650000D64400003434000034340000C5
:1043F000953C0000DFEF0000DFEF0000384D0000CB
:10440000543C000034340000343400009544000073
:104410007B9600002E3B0000125400003B860000FB
:10442000953C000034340000343400003434000083
:10443000584D0000DFEF0000584D0000953C000093
:104440003434000034340000384D00003B86000056
:10445000325C0000CC2A0000FA750000F74400002E
:104460003434000034340000953C0000584D000006
:10447000DFEF0000584D00003434000034340000F9
:1044800034340000B53C00005B860000325400006C
:104490004F3B00007C96000095440000343400003F
:1044A00034340000543C0000384D0000DFEF0000C1
:1044B000DFEF0000953C000034340000543400006D
:1044C000F74400001A7E0000735C0000AC2A000074
:1044D0005775000058550000543C0000343400006B
:1044E0005434000017450000DFEF0000DFEF00004C
:1044F000B63C000034340000343400005434000072
:10450000585500001A8E00000D3B00003775000062
:10451000B965000034340000343400003434000045
:10452000D6440000DFEF0000DFEF0000384D000050
:104530005434000034340000543400003855000076
:104540003B8E00006F43000012540000795D0000B4
:10455000953C00003434000034340000743C00000A
:10456000DFEF0000DFEF0000584D0000543C00007A
:104570003434000054340000F74C00007B960000F7
:10458000CC32000012540000B96D0000B6440000A7
:104590003434000034340000543C0000584D000016
:1045A000DFEF0000584D0000543C000034340000A0
:1045B00034340000D64400003B8E0000D46C000070
:1045C000CC320000D9850000174D000034340000C3
:1045D000343400005434000017450000DFEF0000C1
:1045E000DFEF0000953C000054340000343400003C
:1045F000753C000099650000F9850000735C0000BF
:10460000BA6D0000543C0000343400005434000003
:10461000B63C0000DFEF0000DFEF0000174D0000A8
:10462000543C00003434000054340000384D000085
:104630007B9600001A860000384D000054340000BC
:10464000543C0000743C0000184D0000DFEF0000F7
:10465000DFEF0000B63C000054340000543C000082
:10466000743C0000DA6D0000F5640000AC2A000024
:1046700098750000174D00003434000054340000D9
:10468000743C0000F7440000DFEF0000DFEF0000A3
:10469000D644000034340000543C0000B54400000F
:1046A000BA6D0000166D00006B220000D56400009A
:1046B0007955000054340000543C0000543C000084
:1046C000F74C0000DFEF0000DFEF0000B63C000019
:1046D00034340000543C0000743C0000795D00005C
:1046E000B97D00004B220000F5640000795D0000F8
:1046F00054340000543C0000543C0000F7440000D7
:10470000DFEF0000DFEF0000F7440000343400006A
:10471000543C0000743C0000795500003B8E0000C2
:104720008B2A000036750000995D000054340000AB
:1047300034340000743C0000D6440000DFEF000079
:10474000DFEF0000184D000034340000543C00003E
:10475000743C0000795D0000D97D0000AC2A0000A7
:10476000124C00007955000054340000343400002D
:10477000543C0000743C0000DFEF0000DFEF00005D
:10478000384D000034340000543C0000743C0000FC
:1047900058550000D97D00004A2200004A1A000046
:1047A00099650000B644000054340000543C0000F9
:1047B000B5440000DFEF0000DFEF0000384D0000DF
:1047C00054340000543C0000743C0000B644000027
:1047D0003B8600000E3B0000125400001A7E0000D1
:1047E000953C000034340000743C0000743C000030
:1047F000DFEF0000DFEF0000DFEF0000953C00007E
:1048000034340000743C0000184D00001A7E000093
:10481000F1530000AC2A0000DA6D0000F7440000FC
:1048200034340000543C000095440000DFEF0000E9
:10483000DFEF0000584D0000343400003434000035
:10484000543C0000B54400001A7E000012540000E1
:104850002E3B00005B8E0000953C000034340000CD
:10486000543C0000743C0000384D0000DFEF0000B5
:10487000DFEF0000953C000054340000543C000081
:10488000174D0000FA750000325C00008C2A000011
:10489000376D0000585500005434000054340000B7
:1048A000743C0000174D0000DFEF0000DFEF000058
:1048B000953C000034340000543C0000743C00007F
:1048C00058550000D98500000D330000166D00001A
:1048D000996500003434000034340000543C00007A
:1048E000F6440000DFEF0000DFEF0000384D00006D
:1048F00034340000543C0000743C00005855000063
:10490000FA7D00006F430000F14B00007955000074
:10491000753C000054340000543C0000753C00001D
:10492000DFEF0000DFEF0000584D000054340000BE
:10493000543C0000743C0000174D00005B8E0000EA
:10494000CC32000011540000B9650000B6440000EC
:1049500034340000543C0000753C0000584D000009
:10496000DFEF0000584D00005434000034340000E4
:10497000743C0000D64400001A860000B4640000B5
:10498000AC2A000098750000174500003434000080
:10499000543C0000743C0000384D0000DFEF000084
:1049A000DFEF0000953C000034340000543C000070
:1049B0009544000099650000B97D0000735C00001B
:1049C000B96500005434000054340000543C000029
:1049D000D6440000DFEF0000DFEF000017450000C5
:1049E00054340000543C0000743C00005855000052
:1049F0003B8600001A860000584D0000F73C00007E
:104A0000996500005B8E0000B9650000DFEF0000D3
:104A1000DFEF000017450000F73C0000FA750000CA
:104A20007C8E0000DA6D0000D5640000AC2A000026
:104A300098750000384D0000D73C0000384D00004C
:104A40005B8E0000DA6D0000DFEF0000DFEF00009A
:104A500018450000F73C0000DA7500001B7E0000DE
:104A6000DA6D0000166D00006B220000D5640000B6
:104A700079550000F73C0000385500005B8E0000BF
:104A8000DA6D0000DFEF0000DFEF000017450000E7
:104A9000D73C0000FA7D00005B8E0000BA65000084
:104AA000B97D00004B220000F5640000795D000034
:104AB000F73C0000585500005B8E0000DA6D0000E6
:104AC000DFEF0000DFEF000038450000D73C0000BA
:104AD000996500005B8E0000795500003B86000060
:104AE0008B2A0000366D0000995D0000F73C000045
:104AF000174D00005B8E0000FA750000795500002C
:104B0000DFEF0000384D0000D73C0000785D00006A
:104B10005B8E0000B9650000D97D0000AC2A000062
:104B2000124C0000795D0000D73C0000D73C00002B
:104B30001A8600005B8E000079550000DFEF000050
:104B4000584D0000D73C0000795D00005B8E0000EE
:104B5000B9650000D97D00004A2200004A1A000011
:104B60009965000018450000F74400001A7E000017
:104B70001B7E0000DFEF0000DFEF0000584D00005B
:104B8000D73C0000785D00005B8E00003B7E00009B
:104B90003B8600000E330000115400001A7E000016
:104BA00017450000F74400003B8600007C8E0000A3
:104BB00079550000DFEF0000DFEF0000F744000050
:104BC000174D00003B860000995D00001A7E000032
:104BD000F1530000AC2A0000DA6D000038450000F7
:104BE000D73C00001A7E00003B7E00007955000093
:104BF000DFEF0000DFEF0000D73C0000D73C0000F3
:104C00003B8600003B7E00001A7E0000114C000035
:104C10002E3B00005B8E000017450000D73C0000D3
:104C2000B96500005B8E0000995D0000DFEF0000B9
:104C3000DFEF0000F7440000174500001A7E000077
:104C4000DA6D0000FA750000325C00008C2A00006A
:104C5000376D000079550000F73C0000585D0000FA
:104C60005B8E0000B95D0000DFEF0000DFEF0000A9
:104C7000F7440000F7440000FA7D00005B8E00005E
:104C8000B9650000D9850000ED320000166D000006
:104C9000B9650000D73C0000174D00005B8E000096
:104CA000FA750000DFEF0000DFEF0000584D000054
:104CB000D73C0000585D00003B860000BA6500004C
:104CC000FA7D00006F430000F14B000079550000B1
:104CD000F7440000384D00003B8600005B8E00006A
:104CE00079550000DFEF0000DFEF0000F73C000027
:104CF000385500003B860000DA6D00003B8E000056
:104D0000CC32000011540000B965000017450000C6
:104D1000D73C0000B96D00005B8E000079550000A3
:104D2000DFEF0000584D0000F73C0000174D000079
:104D30003B860000FA7500001B860000B46400008A
:104D4000AC2A000098750000384D0000D73C0000E8
:104D5000B96500005B8E0000995D0000DFEF000088
:104D6000DFEF0000F7440000F7440000FA7D000088
:104D70003B860000B9650000B97D0000735C00004F
:104D8000B9650000F73C0000184D00003B860000AC
:104D90001A760000DFEF0000DFEF0000384D000062
:104DA000F73C0000785D00003B860000995D000044
:104DB0003B8600001A860000584D0000384D000068
:104DC000995D00001B760000BA650000DFEF00006F
:104DD000DFEF0000384D0000384D0000B9650000DD
:104DE0001B760000DA6D0000D5640000AC2A0000DC
:104DF0009875000059550000384D0000584D0000CE
:104E0000FB750000DA650000794D0000DFEF00005F
:104E1000584D0000384D0000995D0000FA6D00000B
:104E2000DA6D0000166D00006B220000D5640000F2
:104E300079550000384D000058550000FB75000002
:104E4000BA650000DFEF0000DFEF0000384D000022
:104E5000384D0000BA650000FB750000BA6500001F
:104E6000B97D00004B220000F5640000795D000070
:104E7000384D000059550000FA750000DA6D000049
:104E8000DFEF0000DFEF0000584D0000384D00005C
:104E900079550000FA750000795500003B86000046
:104EA0008B2A0000366D0000995D0000384D00002F
:104EB000584D00001B760000FA6D00007955000087
:104EC000DFEF0000584D0000384D0000795500001C
:104ED000FA750000995D0000D97D0000AC2A000041
:104EE000124C0000995D0000384D0000384D000064
:104EF000DA6D0000FB75000079550000DFEF00005F
:104F0000DFEF0000384D000079550000FB75000010
:104F1000995D0000D97D00004A2200004A1A000075
:104F200099650000384D0000384D0000DA6D000032
:104F3000FA750000DFEF0000DFEF0000584D0000C1
:104F4000384D000079550000FA6D0000FA6D000040
:104F50003B8600000E330000115400001A7E000052
:104F6000384D0000384D0000DA6500001B76000067
:104F700079550000DFEF0000DFEF0000384D000042
:104F8000584D0000BA650000995D00001A7E0000CF
:104F9000F1530000AC2A0000DA6D0000384D00002B
:104FA000384D0000DA6D0000FA75000079550000F8
:104FB000DFEF0000DFEF0000384D0000384D00004B
:104FC000DA6D0000DA6D00001A7E0000114C00005E
:104FD0002E3B00005B8E0000584D0000384D000055
:104FE000995D00001B760000995D0000DFEF000076
:104FF000DFEF0000384D0000584D0000BA6500009A
:10500000BA650000FA750000325C00008C2A0000CE
:10501000376D000079550000384D000079550000CB
:105020001B760000995D0000DFEF0000DFEF00005D
:10503000384D0000384D0000BA6500001B760000B6
:10504000995D0000D9850000ED320000166D00006A
:10505000B9650000384D0000584D0000FA75000099
:10506000BA650000DFEF0000DFEF0000DFEF0000B7
:10507000384D000079550000FA6D0000DA65000037
:10508000FA7D00006F430000F14B000079550000ED
:10509000384D0000584D0000FA7500001B760000E6
:1050A00079550000DFEF0000DFEF0000384D000011
:1050B00059550000FA750000BA6500003B8E0000EB
:1050C000CC32000011540000B96D0000384D0000D2
:1050D000384D0000995D00001B76000079550000F6
:1050E000DFEF0000DFEF0000384D0000584D0000FA
:1050F000DA6D0000DA6D00001B860000B464000069
:10510000AC2A000098750000584D0000384D000092
:10511000995D00001B760000995D0000DFEF000044
:10512000DFEF0000384D0000384D0000B965000089
:10513000FA750000B9650000B97D0000735C0000DD
:10514000B9650000384D0000584D0000FA6D0000B0
:10515000FA6D0000DFEF0000DFEF0000584D0000A7
:10516000384D000079550000FA6D0000995D00008F
:105170003B8600001A86000079550000DFEF000032
:10518000794D00007955000079550000DFEF0000EF
:10519000DFEF0000DFEF0000DFEF000079550000D7
:1051A00079550000DA6D0000D5640000AC2A0000DB
:1051B0009875000079550000DFEF0000DFEF000078
:1051C0007955000079550000DFEF0000DFEF0000A7
:1051D000DFEF0000DFEF0000794D0000795500009F
:1051E000DA6D0000166D00006B220000D56400002F
:1051F000795D0000DFEF0000DFEF0000795500006F
:1052000079550000DFEF0000DFEF0000DFEF000066
:10521000DFEF00007955000079550000995D00002E
:10522000B97D00004B220000F5640000995D00008C
:10523000DFEF0000DFEF0000795500007955000036
:10524000DFEF0000DFEF0000DFEF0000DFEF000026
:10525000DFEF000079550000795500003B86000023
:105260008B2A0000366D000099650000DFEF00001A
:10527000DFEF00007955000079550000DFEF0000F6
:10528000DFEF0000DFEF0000DFEF0000DFEF0000E6
:1052900079550000995D0000D97D0000AC2A00001E
:1052A000124C0000995D0000DFEF0000DFEF00000E
:1052B0007955000079550000DFEF0000DFEF0000B6
:1052C000DFEF0000DFEF0000DFEF000079550000A6
:1052D00079550000D97D00004A2200004A1A0000DA
:1052E00099650000DFEF0000DFEF00007955000056
:1052F00079550000DFEF0000DFEF0000DFEF000076
:10530000DFEF0000DFEF0000795500007955000065
:105310003B8600000E330000115400001A7E00008E
:10532000DFEF0000DFEF0000795500007955000045
:10533000DFEF0000DFEF0000DFEF0000DFEF000035
:10534000DFEF000079550000DFEF00001A7E00005B
:10535000F1530000AC2A0000DA6D0000DFEF00001E
:10536000DFEF00007955000079550000794D00000D
:10537000DFEF0000DFEF0000DFEF0000DFEF0000F5
:1053800079550000795500001A7E0000114C00008C
:105390002E3B00005B8E000079550000DFEF00001F
:1053A000794D00007955000079550000DFEF0000CD
:1053B000DFEF0000DFEF0000DFEF000079550000B5
:1053C00079550000FA750000325C00008C2A00005C
:1053D000376D000079550000DFEF0000DFEF0000BF
:1053E00079550000794D0000DFEF0000DFEF00008D
:1053F000DFEF0000DFEF0000795500007955000075
:1054000079550000D9850000ED320000166D0000CE
:10541000BA650000DFEF0000DFEF00007955000003
:1054200079550000DFEF0000DFEF0000DFEF000044
:10543000DFEF0000DFEF000079550000995D00000C
:10544000FA7D00006F430000F14B00007955000029
:10545000DFEF0000DFEF0000795500007955000014
:10546000DFEF0000DFEF0000DFEF0000DFEF000004
:10547000DFEF000079550000795500003B8E0000F9
:10548000CC32000011540000B96D0000DFEF0000C5
:10549000DFEF0000794D000079550000DFEF0000DC
:1054A000DFEF0000DFEF0000DFEF0000DFEF0000C4
:1054B00079550000795500001B860000B464000097
:1054C000AC2A0000B8750000DFEF0000DFEF00003D
:1054D000794D00007955000079550000DFEF00009C
:1054E000DFEF0000DFEF0000DFEF00007955000084
:1054F0007955000099650000B97D0000735C0000DB
:10550000B9650000DFEF0000DFEF00007955000013
:1055100079550000DFEF0000DFEF0000DFEF000053
:10552000DFEF0000DFEF0000795500007955000043
:105530003B8600001A86000079550000DFEF00006E
:10554000DFEF0000DFEF0000DFEF0000DFEF000023
:10555000DFEF0000DFEF0000DFEF0000DFEF000013
:1055600079550000DA6D0000D5640000AC2A000017
:105570009875000079550000DFEF0000DFEF0000B4
:10558000DFEF0000DFEF0000DFEF0000DFEF0000E3
:10559000DFEF0000DFEF0000DFEF0000DFEF0000D3
:1055A000BA650000166D00006B220000D564000093
:1055B000795D0000DFEF0000DFEF0000DFEF0000AB
:1055C000DFEF0000DFEF0000DFEF0000DFEF0000A3
:1055D000DFEF0000DFEF0000DFEF0000995D00006B
:1055E000B97D00004B220000F5640000995D0000C9
:1055F000DFEF0000DFEF0000DFEF0000DFEF000073
:10560000DFEF0000DFEF0000DFEF0000DFEF000062
:10561000DFEF0000DFEF0000795500003B8600005F
:105620008B2A0000366D000099650000DFEF000056
:10563000DFEF0000DFEF0000DFEF0000DFEF000032
:10564000DFEF0000DFEF0000DFEF0000DFEF000022
:10565000DFEF0000995D0000D97D0000AC2A00005A
:10566000124C0000995D0000DFEF0000DFEF00004A
:10567000DFEF0000DFEF0000DFEF0000DFEF0000F2
:10568000DFEF0000DFEF0000DFEF0000DFEF0000E2
:1056900079550000D97D00004A2200004A1A000016
:1056A00099650000794D0000DFEF0000DFEF00009A
:1056B000DFEF0000DFEF0000DFEF0000DFEF0000B2
:1056C000DFEF0000DFEF0000DFEF000079550000A2
:1056D0003B8600000E330000115400001A7E0000CB
:1056E000DFEF0000DFEF0000DFEF0000DFEF000082
:1056F000DFEF0000DFEF0000DFEF0000DFEF000072
:10570000DFEF0000DFEF0000DFEF0000FA7D0000B8
:10571000F1530000AC2A0000DA6D0000DFEF00005A
:10572000DFEF0000DFEF0000DFEF0000DFEF000041
:10573000DFEF0000DFEF0000DFEF0000DFEF000031
:10574000DFEF0000DFEF00001A7E0000114C0000C8
:105750002E3B00005B8E000079550000DFEF00005B
:10576000DFEF0000DFEF0000DFEF0000DFEF000001
:10577000DFEF0000DFEF0000DFEF0000DFEF0000F1
:1057800079550000FA750000325C00008C2A000098
:10579000376D000079550000DFEF0000DFEF0000FB
:1057A000DFEF0000DFEF0000DFEF0000DFEF0000C1
:1057B000DFEF0000DFEF0000DFEF0000DFEF0000B1
:1057C00079550000D9850000ED320000166D00000B
:1057D000BA650000DFEF0000DFEF0000DFEF000040
:1057E000DFEF0000DFEF0000DFEF0000DFEF000081
:1057F000DFEF0000DFEF0000DFEF00007955000071
:10580000FA7D00006F430000F14B00007955000065
:10581000DFEF0000DFEF0000DFEF0000DFEF000050
:10582000DFEF0000DFEF0000DFEF0000DFEF000040
:10583000DFEF0000DFEF0000795500003B8E000035
:10584000CC32000011540000B96D0000DFEF000001
:10585000DFEF0000DFEF0000DFEF0000DFEF000010
:10586000DFEF0000DFEF0000DFEF0000DFEF000000
:10587000DFEF0000795500001A7E0000B4640000DC
:10588000AC2A0000B8750000DFEF0000DFEF000079
:10589000DFEF0000DFEF0000DFEF0000DFEF0000D0
:1058A000DFEF0000DFEF0000DFEF0000DFEF0000C0
:1058B000DFEF0000995D0000B97D00005354000047
:1058C000B9650000794D0000DFEF0000DFEF000058
:1058D000DFEF0000DFEF0000DFEF0000DFEF000090
:1058E000DFEF0000DFEF0000DFEF00007955000080
:1058F0003B8600001A86000079550000DFEF0000AB
:10590000DFEF0000DFEF0000DFEF0000DFEF00005F
:10591000DFEF0000DFEF0000DFEF0000DFEF00004F
:1059200079550000DA6D0000D5640000AC2A000053
:105930009875000079550000DFEF0000DFEF0000F0
:10594000DFEF0000DFEF0000DFEF0000DFEF00001F
:10595000DFEF0000DFEF0000DFEF0000DFEF00000F
:10596000BA650000166D00006B220000D5640000CF
:10597000795D0000DFEF0000DFEF0000DFEF0000E7
:10598000DFEF0000DFEF0000DFEF0000DFEF0000DF
:10599000DFEF0000DFEF0000DFEF0000995D0000A7
:1059A000B97D00004B220000F5640000995D000005
:1059B000DFEF0000DFEF0000DFEF0000DFEF0000AF
:1059C000DFEF0000DFEF0000DFEF0000DFEF00009F
:1059D000DFEF0000DFEF0000795500003B8600009C
:1059E0008B2A0000366D000099650000DFEF000093
:1059F000DFEF0000DFEF0000DFEF0000DFEF00006F
:105A0000DFEF0000DFEF0000DFEF0000DFEF00005E
:105A1000DFEF0000995D0000D97D0000AC2A000096
:105A2000124C0000995D0000DFEF0000DFEF000086
:105A3000DFEF0000DFEF0000DFEF0000DFEF00002E
:105A4000DFEF0000DFEF0000DFEF0000DFEF00001E
:105A500079550000D97D00004A2200004A1A000052
:105A600099650000DFEF0000DFEF0000DFEF0000CE
:105A7000DFEF0000DFEF0000DFEF0000DFEF0000EE
:105A8000DFEF0000DFEF0000DFEF000079550000DE
:105A90003B8600000E330000115400001A7E000007
:105AA000DFEF0000DFEF0000DFEF0000DFEF0000BE
:105AB000DFEF0000DFEF0000DFEF0000DFEF0000AE
:105AC000DFEF0000DFEF0000DFEF0000FA7D0000F5
:105AD000F1530000AC2A0000DA6D0000DFEF000097
