:020000040800F2
:1000000060060020B1010008C5040008B102000824
:10001000C10400086302000819060008000000007F
:10002000000000000000000000000000C9040008FB
:100030006702000800000000C7040008B5050008BA
:10004000CB010008CB010008CB010008CB01000860
:10005000CB010008CB010008CB010008CB01000850
:1000600075020008CB010008CB010008CB01000895
:10007000CB010008CB010008CB010008CB01000830
:10008000CB010008CB010008CB010008CB01000820
:10009000CB010008CB010008CB010008CB01000810
:1000A000CB010008CB010008CB010008CB01000800
:1000B000CB010008CB010008CB010008CB010008F0
:1000C000CB010008CB010008CB010008CB010008E0
:1000D000CB010008CB010008CB010008CB010008D0
:1000E000CB010008CB010008CB010008CB010008C0
:1000F000CB010008CB010008CB010008CB010008B0
:10010000CB010008CB010008CB010008CB0100089F
:10011000CB010008CB010008CB010008CB0100088F
:10012000CB010008CB010008CB010008CB0100087F
:1001300000F002F800F02CF80AA090E8000C8244CD
:100140008344AAF10107DA4501D100F021F8AFF2AA
:10015000090EBAE80F0013F0010F18BFFB1A43F0A5
:1001600001031847D0050000E0050000002300242B
:1001700000250026103A28BF78C1FBD8520728BFB7
:1001800030C148BF0B6070471FB51FBD10B510BD13
:1001900000F031F81146FFF7F7FF00F08FFA00F09A
:1001A0004FF803B4FFF7F2FF03BC00F053F8000070
:1001B0000948804709480047FEE7FEE7FEE7FEE7FB
:1001C000FEE7FEE7FEE7FEE7FEE7FEE70448054937
:1001D000054A064B70470000B905000831010008C8
:1001E0006000002060060020600200206002002005
:1001F000704770477047754600F028F8AE46050016
:100200006946534620F00700854618B020B5FFF731
:10021000DDFFBDE820404FF000064FF000074FF033
:1002200000084FF0000B21F00701AC46ACE8C00914
:10023000ACE8C009ACE8C009ACE8C0098D4670471D
:100240000446AFF300802046FFF7ABFF004870473D
:100250000000002001491820ABBEFEE72600020086
:10026000704700BFFEE77047002100E0491C814253
:10027000FCD3704700B500230EE020200949086038
:100280000948FFF7F1FF20200649091F08600648CA
:10029000FFF7EAFF581CC3B20A2BEEDB0420034928
:1002A000086000BD140C014040420F0014040140DE
:1002B00000BFFEE70A48806940F0080008498861ED
:1002C0000848006820F00F000649086008460068EA
:1002D00040F003000860881502491031086070473B
:1002E00000100240040C01402B48806940F00400DB
:1002F000294988610846806940F0400088612748A4
:10030000006820F00F00254908600846006840F0AA
:100310000800086021481430006840F001001F49BF
:10032000143108601E48006820F470201C490860E1
:100330000846006840F40020086019481030006842
:1003400040F010001649103108601548006820F48C
:100350007040134908600846006840F40040086097
:100360000F481030006840F008000D491031086057
:100370000B48006820F4706009490860084600686E
:1003800040F40060086006481030006840F0040047
:100390000349103108607047001002400008014016
:1003A000001801401448806940F008001249886133
:1003B0000846806940F0400088611048006820F4D9
:1003C00070000E4908600846006840F4401008605C
:1003D00020200A49103108600948006820F47000A4
:1003E000074908600846006840F440100860202073
:1003F000034910310860704700100240000C0140B2
:100400000018014007210020294A5268294B1A4050
:10041000274B5A601A461268274B1A40244B1A6021
:100420001A46126842F480321A6000BF204A1268ED
:10043000520C002AFAD01E4A526822F47F421C4B0A
:100440005A601A46526842F4A0525A601A465268DC
:1004500042EA81425A601A46526842F480325A6037
:100460001A46526842F480325A60144A126842F0C6
:100470003202124B1A600E4A126842F080720C4B24
:100480001A6000BF0A4A1268520E002AFAD0084ABF
:10049000526842F00202064B5A6005E0044A526874
:1004A000C2F3870000F003000228F7D17047000074
:1004B000001002400000FFF8FFFFF6FE002002409F
:1004C00000BFFEE770477047704710B500F002F8B4
:1004D00010BD00000CB5002001900090334800686A
:1004E00040F480303149086000BF3048006800F4B3
:1004F000003000900198401C0190009818B90198B4
:10050000B0F5A06FF1D12948006800F4003010B1B7
:100510000120009001E0002000900098012843D1C4
:100520002348006840F01000214908600846006830
:1005300020F0030008600846006840F002000860F0
:100540001A484068194948600846406848600846AB
:10055000406840F4806048600846406820F47C10A1
:1005600048600846406840F4E81048600846006863
:1005700040F08070086000BF0C48006800F0007018
:100580000028F9D00948406820F003000749486076
:100590000846406840F00200486000BF03484068D9
:1005A00000F00C000828F9D10CBD0000001002403A
:1005B000002002407047000010B51348006840F06A
:1005C00001001149086008464068104908400E497A
:1005D0004860084600680E4908400B490860084614
:1005E000006820F4802008600846406820F4FE007F
:1005F00048604FF41F008860FFF767FF4FF000600E
:100600000449086010BD0000001002400000FFF81F
:10061000FFFFF6FE08ED00E000BFFEE7214880691D
:1006200040F040001F4988611F48006820F4706056
:100630001D4908600846006840F4006008601A48D8
:100640000C30006840F0040017490C310860154870
:10065000806940F00100134988611448806820F4E3
:100660007060124988600846806840F48060886045
:100670000F48006840F004000D4908600C480C3039
:10068000006840F004000A490C31086065210948FF
:1006900001700948006840F480704FF0E021C1F813
:1006A00000017047001002400018014000000140A6
:1006B0000004014008E400E000E100E0FFF772FE02
:1006C000FFF712FEFFF7F6FDFFF79CFE052000F096
:1006D0001BF8FFF7A3FF2020084908600CE020204A
:1006E000074908600748FFF7BFFD20200449091F9C
:1006F00008600448FFF7B8FDF1E70000100C014066
:100700001418014020A1070010B543075A0D074BEC
:100710001B684FF6FF042340044C23601946044B2A
:10072000194341EA02031946236010BD0CED00E0B5
:100730000000FA05440700080000002060060000E1
:040740006C01000840
:0400000508000131BD
:00000001FF
