:020000040800F2
:1000000088060020B10100087D040008690200088C
:100010007904000863020008690600080000000077
:100020000000000000000000000000008104000843
:1000300067020008000000007F0400086D0500084A
:10004000CB010008CB010008CB010008CB01000860
:10005000CB010008CB010008CB010008CB01000850
:10006000CB010008CB010008CB010008CB01000840
:10007000CB010008CB010008CB010008CB01000830
:10008000CB010008CB010008CB010008CB01000820
:10009000CB010008CB010008CB010008CB01000810
:1000A000CB010008CB010008CB010008CB01000800
:1000B000CB010008F90500083D060008CB01000847
:1000C000CB010008CB010008CB010008CB010008E0
:1000D000CB010008CB010008CB010008CB010008D0
:1000E000CB010008CB010008CB010008CB010008C0
:1000F000CB010008CB010008CB010008CB010008B0
:10010000CB010008CB010008CB010008CB0100089F
:10011000CB010008CB010008CB010008CB0100088F
:10012000CB010008CB010008CB010008CB0100087F
:1001300000F002F800F02CF80AA090E8000C8244CD
:100140008344AAF10107DA4501D100F021F8AFF2AA
:10015000090EBAE80F0013F0010F18BFFB1A43F0A5
:1001600001031847DC050000EC0500000023002413
:1001700000250026103A28BF78C1FBD8520728BFB7
:1001800030C148BF0B6070471FB51FBD10B510BD13
:1001900000F031F81146FFF7F7FF00F071FA00F0B8
:1001A0004FF803B4FFF7F2FF03BC00F053F8000070
:1001B0000948804709480047FEE7FEE7FEE7FEE7FB
:1001C000FEE7FEE7FEE7FEE7FEE7FEE70448054937
:1001D000054A064B704700009905000831010008E8
:1001E0008800002088060020880200208802002065
:1001F000704770477047754600F028F8AE46050016
:100200006946534620F00700854618B020B5FFF731
:10021000DDFFBDE820404FF000064FF000074FF033
:1002200000084FF0000B21F00701AC46ACE8C00914
:10023000ACE8C009ACE8C009ACE8C0098D4670471D
:100240000446AFF300802046FFF7ABFF004870473D
:100250002800002001491820ABBEFEE7260002005E
:10026000704700BFFEE7704700BFFEE70A4880699D
:1002700040F00800084988610848006820F00F0035
:10028000064908600846006840F0030008608815C9
:10029000024910310860704700100240040C014010
:1002A0002B48806940F0040029498861084680692C
:1002B00040F0400088612748006820F00F00254981
:1002C00008600846006840F00800086021481430C3
:1002D000006840F001001F49143108601E480068A2
:1002E00020F470201C4908600846006840F4002093
:1002F000086019481030006840F0100016491031AD
:1003000008601548006820F47040134908600846EA
:10031000006840F4004008600F481030006840F06A
:1003200008000D49103108600B48006820F4706027
:10033000094908600846006840F400600860064803
:100340001030006840F00400034910310860704725
:100350000010024000080140001801401448806964
:1003600040F00800124988610846806940F040006A
:1003700088611048006820F470000E490860084643
:10038000006840F44010086020200A4910310860DD
:100390000948006820F470000749086008460068B2
:1003A00040F4401008602020034910310860704775
:1003B00000100240000C01400018014007210020FD
:1003C000294A5268294B1A40274B5A601A4612682C
:1003D000274B1A40244B1A601A46126842F48032A6
:1003E0001A6000BF204A1268520C002AFAD01E4A36
:1003F000526822F47F421C4B5A601A46526842F4FB
:10040000A0525A601A46526842EA81425A601A461D
:10041000526842F480325A601A46526842F480327E
:100420005A60144A126842F03202124B1A600E4AA5
:10043000126842F080720C4B1A6000BF0A4A1268C0
:10044000520E002AFAD0084A526842F00202064BC5
:100450005A6005E0044A5268C2F3870000F00300C6
:100460000228F7D170470000001002400000FFF89A
:10047000FFFFF6FE0020024000BFFEE77047704716
:10048000704710B500F002F810BD00000CB5002058
:10049000019000903348006840F480303149086092
:1004A00000BF3048006800F4003000900198401C04
:1004B0000190009818B90198B0F5A06FF1D12948C2
:1004C000006800F4003010B10120009001E000202D
:1004D00000900098012843D12348006840F01000A4
:1004E000214908600846006820F0030008600846BB
:1004F000006840F0020008601A48406819494860E6
:100500000846406848600846406840F4806048609B
:100510000846406820F47C1048600846406840F473
:10052000E81048600846006840F08070086000BF2E
:100530000C48006800F000700028F9D009484068B5
:1005400020F00300074948600846406840F0020078
:10055000486000BF0348406800F00C000828F9D14B
:100560000CBD0000001002400020024000200DE001
:10057000084951F82010012906D9064951F82010E0
:10058000491E044A42F82010411CC8B20A28EFDB79
:10059000704700000000002010B51348006840F0CC
:1005A00001001149086008464068104908400E499A
:1005B0004860084600680E4908400B490860084634
:1005C000006820F4802008600846406820F4FE009F
:1005D00048604FF41F008860FFF753FF4FF0006042
:1005E0000449086010BD0000001002400000FFF840
:1005F000FFFFF6FE08ED00E000B520200D49086081
:10060000091F0860091D086000F030F82020094922
:10061000086000F031F8202006490860064800888C
:1006200020F00100044908800846008820F00100FD
:10063000088000BD140C01401004004008480088E8
:1006400000F0010028B10748006880F0200005494B
:1006500008600348008820F00100014908807047C5
:10066000100800400C18014000BFFEE7202001499F
:1006700008607047100C014000B5FFF7F7FF00BDA0
:10068000FFF76CFEFFF70CFEFFF7F0FDFFF796FE9D
:10069000052000F011F841F61F4141F2873000F0CB
:1006A00021F82020024908600249086000BFFEE7E7
:1006B000100C01401018014010B500F4E062074B27
:1006C0001B684FF6FF042340044C23601946044B7B
:1006D000194341EA02031946236010BD0CED00E006
:1006E0000000FA05124AD26942F00202104BDA61A8
:1006F000104A1080121F11800E4A203A128842F0D0
:1007000001020C4B203B1A800A4A2C3A128842F014
:100710000102084B2C3B1A804523074A1370074AF5
:10072000126842F000524FF0E023C3F800217047F6
:10073000001002402C0400401DE400E000E100E055
:100740005007000800000020880600006C01000827
:0400000508000131BD
:00000001FF
