:020000040800F2
:1000000060060020B10100087D02000875020008AA
:100010007902000863020008D10300080000000014
:100020000000000000000000000000008102000845
:1000300067020008000000007F0200086D0300084E
:10004000CB010008CB010008CB010008CB01000860
:10005000CB010008CB010008CB010008CB01000850
:10006000CB010008CB010008CB010008CB01000840
:10007000CB010008CB010008CB010008CB01000830
:10008000CB010008CB010008CB010008CB01000820
:10009000CB010008CB010008CB010008CB01000810
:1000A000CB010008CB010008CB010008CB01000800
:1000B000CB010008CB010008CB010008CB010008F0
:1000C000CB010008CB010008CB010008CB010008E0
:1000D000CB010008CB010008CB010008CB010008D0
:1000E000CB010008CB010008CB010008CB010008C0
:1000F000CB010008CB010008CB010008CB010008B0
:10010000CB010008CB010008CB010008CB0100089F
:10011000CB010008CB010008CB010008CB0100088F
:10012000CB010008CB010008CB010008CB0100087F
:1001300000F002F800F02CF80AA090E8000C8244CD
:100140008344AAF10107DA4501D100F021F8AFF2AA
:10015000090EBAE80F0013F0010F18BFFB1A43F0A5
:100160000103184724050000340500000023002483
:1001700000250026103A28BF78C1FBD8520728BFB7
:1001800030C148BF0B6070471FB51FBD10B510BD13
:1001900000F031F81146FFF7F7FF00F059FA00F0D0
:1001A0004FF803B4FFF7F2FF03BC00F053F8000070
:1001B0000948804709480047FEE7FEE7FEE7FEE7FB
:1001C000FEE7FEE7FEE7FEE7FEE7FEE70448054937
:1001D000054A064B70470000710300083101000812
:1001E0006000002060060020600200206002002005
:1001F000704770477047754600F028F8AE46050016
:100200006946534620F00700854618B020B5FFF731
:10021000DDFFBDE820404FF000064FF000074FF033
:1002200000084FF0000B21F00701AC46ACE8C00914
:10023000ACE8C009ACE8C009ACE8C0098D4670471D
:100240000446AFF300802046FFF7ABFF004870473D
:100250000000002001491820ABBEFEE72600020086
:10026000704700BFFEE77047002100E0491C814253
:10027000FCD3704700BFFEE700BFFEE77047704742
:10028000704710B500F002F810BD00000CB500205A
:10029000019000903348006840F480303149086094
:1002A00000BF3048006800F4003000900198401C06
:1002B0000190009818B90198B0F5A06FF1D12948C4
:1002C000006800F4003010B10120009001E000202F
:1002D00000900098012843D12348006840F01000A6
:1002E000214908600846006820F0030008600846BD
:1002F000006840F0020008601A48406819494860E8
:100300000846406848600846406840F4806048609D
:100310000846406820F47C1048600846406840F475
:10032000E81048600846006840F08070086000BF30
:100330000C48006800F000700028F9D009484068B7
:1003400020F00300074948600846406840F002007A
:10035000486000BF0348406800F00C000828F9D14D
:100360000CBD000000100240002002407047000059
:1003700010B51348006840F00100114908600846B4
:100380004068104908400E494860084600680E4918
:1003900008400B4908600846006820F48020086087
:1003A0000846406820F4FE0048604FF41F00886053
:1003B000FFF767FF4FF000600449086010BD0000C0
:1003C000001002400000FFF8FFFFF6FE08ED00E01D
:1003D00000BFFEE700B5012000F034F9112000F065
:1003E00031F93A2000F02EF9552000F025F92920A6
:1003F00000F028F9362000F025F9C82000F01CF99B
:1004000000BD00000848806940F008000649886186
:100410000648006820F00F0004490860084600689C
:1004200040F003000860704700100240000C0140DB
:100430002DE9F04781460C4616461D46089F4FF0B1
:1004400000082A2000F0FEF8201200F0F5F8E0B2D3
:1004500000F0F2F83119491EC1F30F2000F0ECF85A
:100460003119491EC8B200F0E7F82B2000F0EAF875
:10047000281200F0E1F8E8B200F0DEF87919491E20
:10048000C1F30F2000F0D8F87919491EC8B200F066
:10049000D3F82C2000F0D6F86420FFF7E5FE00BF6B
:1004A00004E0484600F0C8F808F1010806FB07F030
:1004B0004045F6D8BDE8F08700B55748406940F49C
:1004C0008070554948610846806940F0080088619D
:1004D0000846806940F0200088610846806940F045
:1004E000400088610846806940F4807088614B480C
:1004F000006820F00F00494908600846006840F095
:1005000003000860464800684649084044490860BE
:10051000084600684449084341490860081F0068CC
:1005200000F0FF20091F08600846006840F0BB107B
:1005300008603E48006800203C49086008460068A2
:1005400040F0BB300860081F006820F07040091FB1
:1005500008600846006840F0304008603448406851
:1005600020F47020324948600846406840F430204A
:1005700048600846006820F00F00086008460068E0
:1005800040F00B00086000204FF020418861C861F6
:10059000284908604FF02040806940F480504FF0B7
:1005A000204188610846806940F48040886108469F
:1005B000806940F0100088610846C069C86108463B
:1005C000806940F0010088610846C06940F47060AD
:1005D000C8610846D0F81C0140F02800C1F81C0191
:1005E00014480068C1F81C010846D0F81C0140F40A
:1005F0004070C1F81C010846D0F81C0140F0010011
:100600000C490860FFF7E6FEFFF7FCFE01200349F6
:100610001031086000BD000000100240000C0140D5
:100620000414014000F0FF00BBFBFFBB04180140B5
:10063000002001401C0100A0014908807047000013
:100640000008006C0149088070470000FE07006C3C
:1006500008B5FFF731FF0B48FFF706FE4FF4A07017
:100660000023F022194600904FF6E070FFF7E0FEFD
:100670003220872302465F2100901F20FFF7D8FE1B
:10068000002008BD40420F0098060008000000202E
:08069000600600006C01000887
:0400000508000131BD
:00000001FF
